{
  "contractName": "ATestnetConsumer",
  "abi": [
    {
      "constant": true,
      "inputs": [],
      "name": "changeDay",
      "outputs": [
        {
          "name": "",
          "type": "int256"
        }
      ],
      "payable": false,
      "stateMutability": "view",
      "type": "function"
    },
    {
      "constant": false,
      "inputs": [],
      "name": "renounceOwnership",
      "outputs": [],
      "payable": false,
      "stateMutability": "nonpayable",
      "type": "function"
    },
    {
      "constant": true,
      "inputs": [],
      "name": "owner",
      "outputs": [
        {
          "name": "",
          "type": "address"
        }
      ],
      "payable": false,
      "stateMutability": "view",
      "type": "function"
    },
    {
      "constant": true,
      "inputs": [],
      "name": "isOwner",
      "outputs": [
        {
          "name": "",
          "type": "bool"
        }
      ],
      "payable": false,
      "stateMutability": "view",
      "type": "function"
    },
    {
      "constant": true,
      "inputs": [],
      "name": "currentPrice",
      "outputs": [
        {
          "name": "",
          "type": "uint256"
        }
      ],
      "payable": false,
      "stateMutability": "view",
      "type": "function"
    },
    {
      "constant": true,
      "inputs": [],
      "name": "lastMarket",
      "outputs": [
        {
          "name": "",
          "type": "bytes32"
        }
      ],
      "payable": false,
      "stateMutability": "view",
      "type": "function"
    },
    {
      "constant": false,
      "inputs": [
        {
          "name": "newOwner",
          "type": "address"
        }
      ],
      "name": "transferOwnership",
      "outputs": [],
      "payable": false,
      "stateMutability": "nonpayable",
      "type": "function"
    },
    {
      "inputs": [],
      "payable": false,
      "stateMutability": "nonpayable",
      "type": "constructor"
    },
    {
      "anonymous": false,
      "inputs": [
        {
          "indexed": true,
          "name": "requestId",
          "type": "bytes32"
        },
        {
          "indexed": true,
          "name": "price",
          "type": "uint256"
        }
      ],
      "name": "RequestEthereumPriceFulfilled",
      "type": "event"
    },
    {
      "anonymous": false,
      "inputs": [
        {
          "indexed": true,
          "name": "requestId",
          "type": "bytes32"
        },
        {
          "indexed": true,
          "name": "change",
          "type": "int256"
        }
      ],
      "name": "RequestEthereumChangeFulfilled",
      "type": "event"
    },
    {
      "anonymous": false,
      "inputs": [
        {
          "indexed": true,
          "name": "requestId",
          "type": "bytes32"
        },
        {
          "indexed": true,
          "name": "market",
          "type": "bytes32"
        }
      ],
      "name": "RequestEthereumLastMarket",
      "type": "event"
    },
    {
      "anonymous": false,
      "inputs": [
        {
          "indexed": true,
          "name": "previousOwner",
          "type": "address"
        },
        {
          "indexed": true,
          "name": "newOwner",
          "type": "address"
        }
      ],
      "name": "OwnershipTransferred",
      "type": "event"
    },
    {
      "anonymous": false,
      "inputs": [
        {
          "indexed": true,
          "name": "id",
          "type": "bytes32"
        }
      ],
      "name": "ChainlinkRequested",
      "type": "event"
    },
    {
      "anonymous": false,
      "inputs": [
        {
          "indexed": true,
          "name": "id",
          "type": "bytes32"
        }
      ],
      "name": "ChainlinkFulfilled",
      "type": "event"
    },
    {
      "anonymous": false,
      "inputs": [
        {
          "indexed": true,
          "name": "id",
          "type": "bytes32"
        }
      ],
      "name": "ChainlinkCancelled",
      "type": "event"
    },
    {
      "constant": false,
      "inputs": [
        {
          "name": "_oracle",
          "type": "address"
        },
        {
          "name": "_jobId",
          "type": "string"
        }
      ],
      "name": "requestEthereumPrice",
      "outputs": [],
      "payable": false,
      "stateMutability": "nonpayable",
      "type": "function"
    },
    {
      "constant": false,
      "inputs": [
        {
          "name": "_oracle",
          "type": "address"
        },
        {
          "name": "_jobId",
          "type": "string"
        }
      ],
      "name": "requestEthereumChange",
      "outputs": [],
      "payable": false,
      "stateMutability": "nonpayable",
      "type": "function"
    },
    {
      "constant": false,
      "inputs": [
        {
          "name": "_oracle",
          "type": "address"
        },
        {
          "name": "_jobId",
          "type": "string"
        }
      ],
      "name": "requestEthereumLastMarket",
      "outputs": [],
      "payable": false,
      "stateMutability": "nonpayable",
      "type": "function"
    },
    {
      "constant": false,
      "inputs": [
        {
          "name": "_requestId",
          "type": "bytes32"
        },
        {
          "name": "_price",
          "type": "uint256"
        }
      ],
      "name": "fulfillEthereumPrice",
      "outputs": [],
      "payable": false,
      "stateMutability": "nonpayable",
      "type": "function"
    },
    {
      "constant": false,
      "inputs": [
        {
          "name": "_requestId",
          "type": "bytes32"
        },
        {
          "name": "_change",
          "type": "int256"
        }
      ],
      "name": "fulfillEthereumChange",
      "outputs": [],
      "payable": false,
      "stateMutability": "nonpayable",
      "type": "function"
    },
    {
      "constant": false,
      "inputs": [
        {
          "name": "_requestId",
          "type": "bytes32"
        },
        {
          "name": "_market",
          "type": "bytes32"
        }
      ],
      "name": "fulfillEthereumLastMarket",
      "outputs": [],
      "payable": false,
      "stateMutability": "nonpayable",
      "type": "function"
    },
    {
      "constant": true,
      "inputs": [],
      "name": "getChainlinkToken",
      "outputs": [
        {
          "name": "",
          "type": "address"
        }
      ],
      "payable": false,
      "stateMutability": "view",
      "type": "function"
    },
    {
      "constant": false,
      "inputs": [],
      "name": "withdrawLink",
      "outputs": [],
      "payable": false,
      "stateMutability": "nonpayable",
      "type": "function"
    }
  ],
  "bytecode": "0x608060405260016004553480156200001657600080fd5b5033600660006101000a81548173ffffffffffffffffffffffffffffffffffffffff021916908373ffffffffffffffffffffffffffffffffffffffff160217905550600660009054906101000a900473ffffffffffffffffffffffffffffffffffffffff1673ffffffffffffffffffffffffffffffffffffffff16600073ffffffffffffffffffffffffffffffffffffffff167f8be0079c531659141344cd1fd0a4f28419497f9722a3daafe3b4186f6b6457e060405160405180910390a3620000ee620000f4640100000000026401000000009004565b62000209565b620001c373c89bd4e1632d3a43cb03aaad5262cbe4038bc57173ffffffffffffffffffffffffffffffffffffffff166338cc48316040518163ffffffff167c0100000000000000000000000000000000000000000000000000000000028152600401602060405180830381600087803b1580156200017157600080fd5b505af115801562000186573d6000803e3d6000fd5b505050506040513d60208110156200019d57600080fd5b8101908080519060200190929190505050620001c5640100000000026401000000009004565b565b80600260006101000a81548173ffffffffffffffffffffffffffffffffffffffff021916908373ffffffffffffffffffffffffffffffffffffffff16021790555050565b61231a80620002196000396000f3006080604052600436106100db576000357c0100000000000000000000000000000000000000000000000000000000900463ffffffff168063165d35e1146100e05780632183abd11461013757806349556aff14610162578063619cba1a146101a1578063715018a61461022a5780638da5cb5b146102415780638dc654a2146102985780638f32d59b146102af57806392cdaaf3146102de5780639d1b464a14610319578063a46fbe1a14610344578063ab643c101461037f578063e9edbf0314610408578063f2fde38b1461043b578063f3bdf8ba1461047e575b600080fd5b3480156100ec57600080fd5b506100f5610507565b604051808273ffffffffffffffffffffffffffffffffffffffff1673ffffffffffffffffffffffffffffffffffffffff16815260200191505060405180910390f35b34801561014357600080fd5b5061014c610516565b6040518082815260200191505060405180910390f35b34801561016e57600080fd5b5061019f6004803603810190808035600019169060200190929190803560001916906020019092919050505061051c565b005b3480156101ad57600080fd5b50610228600480360381019080803573ffffffffffffffffffffffffffffffffffffffff169060200190929190803590602001908201803590602001908080601f01602080910402602001604051908101604052809392919081815260200183838082843782019150505050505091929192905050506106d6565b005b34801561023657600080fd5b5061023f6108de565b005b34801561024d57600080fd5b506102566109b2565b604051808273ffffffffffffffffffffffffffffffffffffffff1673ffffffffffffffffffffffffffffffffffffffff16815260200191505060405180910390f35b3480156102a457600080fd5b506102ad6109dc565b005b3480156102bb57600080fd5b506102c4610c25565b604051808215151515815260200191505060405180910390f35b3480156102ea57600080fd5b50610317600480360381019080803560001916906020019092919080359060200190929190505050610c7d565b005b34801561032557600080fd5b5061032e610e2f565b6040518082815260200191505060405180910390f35b34801561035057600080fd5b5061037d600480360381019080803560001916906020019092919080359060200190929190505050610e35565b005b34801561038b57600080fd5b50610406600480360381019080803573ffffffffffffffffffffffffffffffffffffffff169060200190929190803590602001908201803590602001908080601f0160208091040260200160405190810160405280939291908181526020018383808284378201915050505050509192919290505050610fe7565b005b34801561041457600080fd5b5061041d6111c6565b60405180826000191660001916815260200191505060405180910390f35b34801561044757600080fd5b5061047c600480360381019080803573ffffffffffffffffffffffffffffffffffffffff1690602001909291905050506111cc565b005b34801561048a57600080fd5b50610505600480360381019080803573ffffffffffffffffffffffffffffffffffffffff169060200190929190803590602001908201803590602001908080601f01602080910402602001604051908101604052809392919081815260200183838082843782019150505050505091929192905050506111eb565b005b60006105116114f3565b905090565b60085481565b8160056000826000191660001916815260200190815260200160002060009054906101000a900473ffffffffffffffffffffffffffffffffffffffff1673ffffffffffffffffffffffffffffffffffffffff163373ffffffffffffffffffffffffffffffffffffffff16141515610621576040517f08c379a00000000000000000000000000000000000000000000000000000000081526004018080602001828103825260288152602001807f536f75726365206d75737420626520746865206f7261636c65206f662074686581526020017f207265717565737400000000000000000000000000000000000000000000000081525060400191505060405180910390fd5b60056000826000191660001916815260200190815260200160002060006101000a81549073ffffffffffffffffffffffffffffffffffffffff021916905580600019167f7cc135e0cebb02c3480ae5d74d377283180a2601f8f644edf7987b009316c63a60405160405180910390a2816000191683600019167f1a7783cfc5355cd0706abec2229662cda9cefcfc8aeb31fec8b391ba5eb67cbe60405160405180910390a38160098160001916905550505050565b6106de61224c565b6106e6610c25565b15156106f157600080fd5b6107276106fd8361151d565b3063a46fbe1a7c010000000000000000000000000000000000000000000000000000000002611548565b90506107f56040805190810160405280600381526020017f75726c0000000000000000000000000000000000000000000000000000000000815250608060405190810160405280604981526020017f68747470733a2f2f6d696e2d6170692e63727970746f636f6d706172652e636f81526020017f6d2f646174612f70726963656d756c746966756c6c3f6673796d733d4554482681526020017f7473796d733d5553440000000000000000000000000000000000000000000000815250836115799092919063ffffffff16565b6108746040805190810160405280600481526020017f70617468000000000000000000000000000000000000000000000000000000008152506040805190810160405280601881526020017f5241572e4554482e5553442e4348414e47455043544441590000000000000000815250836115799092919063ffffffff16565b6108c26040805190810160405280600581526020017f74696d6573000000000000000000000000000000000000000000000000000000815250633b9aca00836115ac9092919063ffffffff16565b6108d88382670de0b6b3a76400006001026115df565b50505050565b6108e6610c25565b15156108f157600080fd5b600073ffffffffffffffffffffffffffffffffffffffff16600660009054906101000a900473ffffffffffffffffffffffffffffffffffffffff1673ffffffffffffffffffffffffffffffffffffffff167f8be0079c531659141344cd1fd0a4f28419497f9722a3daafe3b4186f6b6457e060405160405180910390a36000600660006101000a81548173ffffffffffffffffffffffffffffffffffffffff021916908373ffffffffffffffffffffffffffffffffffffffff160217905550565b6000600660009054906101000a900473ffffffffffffffffffffffffffffffffffffffff16905090565b60006109e6610c25565b15156109f157600080fd5b6109f96114f3565b90508073ffffffffffffffffffffffffffffffffffffffff1663a9059cbb338373ffffffffffffffffffffffffffffffffffffffff166370a08231306040518263ffffffff167c0100000000000000000000000000000000000000000000000000000000028152600401808273ffffffffffffffffffffffffffffffffffffffff1673ffffffffffffffffffffffffffffffffffffffff168152602001915050602060405180830381600087803b158015610ab357600080fd5b505af1158015610ac7573d6000803e3d6000fd5b505050506040513d6020811015610add57600080fd5b81019080805190602001909291905050506040518363ffffffff167c0100000000000000000000000000000000000000000000000000000000028152600401808373ffffffffffffffffffffffffffffffffffffffff1673ffffffffffffffffffffffffffffffffffffffff16815260200182815260200192505050602060405180830381600087803b158015610b7357600080fd5b505af1158015610b87573d6000803e3d6000fd5b505050506040513d6020811015610b9d57600080fd5b81019080805190602001909291905050501515610c22576040517f08c379a00000000000000000000000000000000000000000000000000000000081526004018080602001828103825260128152602001807f556e61626c6520746f207472616e73666572000000000000000000000000000081525060200191505060405180910390fd5b50565b6000600660009054906101000a900473ffffffffffffffffffffffffffffffffffffffff1673ffffffffffffffffffffffffffffffffffffffff163373ffffffffffffffffffffffffffffffffffffffff1614905090565b8160056000826000191660001916815260200190815260200160002060009054906101000a900473ffffffffffffffffffffffffffffffffffffffff1673ffffffffffffffffffffffffffffffffffffffff163373ffffffffffffffffffffffffffffffffffffffff16141515610d82576040517f08c379a00000000000000000000000000000000000000000000000000000000081526004018080602001828103825260288152602001807f536f75726365206d75737420626520746865206f7261636c65206f662074686581526020017f207265717565737400000000000000000000000000000000000000000000000081525060400191505060405180910390fd5b60056000826000191660001916815260200190815260200160002060006101000a81549073ffffffffffffffffffffffffffffffffffffffff021916905580600019167f7cc135e0cebb02c3480ae5d74d377283180a2601f8f644edf7987b009316c63a60405160405180910390a28183600019167f794eb9e29f6750ede99e05248d997a9ab9fa23c4a7eaff8afa729080eb7c642860405160405180910390a381600781905550505050565b60075481565b8160056000826000191660001916815260200190815260200160002060009054906101000a900473ffffffffffffffffffffffffffffffffffffffff1673ffffffffffffffffffffffffffffffffffffffff163373ffffffffffffffffffffffffffffffffffffffff16141515610f3a576040517f08c379a00000000000000000000000000000000000000000000000000000000081526004018080602001828103825260288152602001807f536f75726365206d75737420626520746865206f7261636c65206f662074686581526020017f207265717565737400000000000000000000000000000000000000000000000081525060400191505060405180910390fd5b60056000826000191660001916815260200190815260200160002060006101000a81549073ffffffffffffffffffffffffffffffffffffffff021916905580600019167f7cc135e0cebb02c3480ae5d74d377283180a2601f8f644edf7987b009316c63a60405160405180910390a28183600019167f36f03c766dbeb725bf2a1e6cf2d934a02bf3cd9644b55767c8f41ef2d4af061260405160405180910390a381600881905550505050565b610fef61224c565b610ff7610c25565b151561100257600080fd5b61103861100e8361151d565b306392cdaaf37c010000000000000000000000000000000000000000000000000000000002611548565b90506110e06040805190810160405280600381526020017f75726c0000000000000000000000000000000000000000000000000000000000815250606060405190810160405280603f81526020017f68747470733a2f2f6d696e2d6170692e63727970746f636f6d706172652e636f81526020017f6d2f646174612f70726963653f6673796d3d455448267473796d733d55534400815250836115799092919063ffffffff16565b61115f6040805190810160405280600481526020017f70617468000000000000000000000000000000000000000000000000000000008152506040805190810160405280600381526020017f5553440000000000000000000000000000000000000000000000000000000000815250836115799092919063ffffffff16565b6111aa6040805190810160405280600581526020017f74696d65730000000000000000000000000000000000000000000000000000008152506064836115ac9092919063ffffffff16565b6111c08382670de0b6b3a76400006001026115df565b50505050565b60095481565b6111d4610c25565b15156111df57600080fd5b6111e88161196b565b50565b6111f361224c565b60606111fd610c25565b151561120857600080fd5b61123e6112148461151d565b306349556aff7c010000000000000000000000000000000000000000000000000000000002611548565b915061130c6040805190810160405280600381526020017f75726c0000000000000000000000000000000000000000000000000000000000815250608060405190810160405280604981526020017f68747470733a2f2f6d696e2d6170692e63727970746f636f6d706172652e636f81526020017f6d2f646174612f70726963656d756c746966756c6c3f6673796d733d4554482681526020017f7473796d733d5553440000000000000000000000000000000000000000000000815250846115799092919063ffffffff16565b600460405190808252806020026020018201604052801561134157816020015b606081526020019060019003908161132c5790505b5090506040805190810160405280600381526020017f524157000000000000000000000000000000000000000000000000000000000081525081600081518110151561138957fe5b906020019060200201819052506040805190810160405280600381526020017f45544800000000000000000000000000000000000000000000000000000000008152508160018151811015156113db57fe5b906020019060200201819052506040805190810160405280600381526020017f555344000000000000000000000000000000000000000000000000000000000081525081600281518110151561142d57fe5b906020019060200201819052506040805190810160405280600a81526020017f4c4153544d41524b45540000000000000000000000000000000000000000000081525081600381518110151561147f57fe5b906020019060200201819052506114d66040805190810160405280600481526020017f70617468000000000000000000000000000000000000000000000000000000008152508284611a679092919063ffffffff16565b6114ec8483670de0b6b3a76400006001026115df565b5050505050565b6000600260009054906101000a900473ffffffffffffffffffffffffffffffffffffffff16905090565b6000606082905060008151141561153a5760006001029150611542565b602083015191505b50919050565b61155061224c565b61155861224c565b61156f85858584611ae9909392919063ffffffff16565b9150509392505050565b611590828460800151611ba390919063ffffffff16565b6115a7818460800151611ba390919063ffffffff16565b505050565b6115c3828460800151611ba390919063ffffffff16565b6115da818460800151611bc890919063ffffffff16565b505050565b600030600454604051602001808373ffffffffffffffffffffffffffffffffffffffff1673ffffffffffffffffffffffffffffffffffffffff166c01000000000000000000000000028152601401828152602001925050506040516020818303038152906040526040518082805190602001908083835b60208310151561167b5780518252602082019150602081019050602083039250611656565b6001836020036101000a038019825116818451168082178552505050505050905001915050604051809103902090506004548360600181815250508360056000836000191660001916815260200190815260200160002060006101000a81548173ffffffffffffffffffffffffffffffffffffffff021916908373ffffffffffffffffffffffffffffffffffffffff16021790555080600019167fb5e6e01e79f91267dc17b4e6314d5d4d03593d2ceee0fbb452b750bd70ea5af960405160405180910390a2600260009054906101000a900473ffffffffffffffffffffffffffffffffffffffff1673ffffffffffffffffffffffffffffffffffffffff16634000aea0858461178a87611c16565b6040518463ffffffff167c0100000000000000000000000000000000000000000000000000000000028152600401808473ffffffffffffffffffffffffffffffffffffffff1673ffffffffffffffffffffffffffffffffffffffff16815260200183815260200180602001828103825283818151815260200191508051906020019080838360005b8381101561182d578082015181840152602081019050611812565b50505050905090810190601f16801561185a5780820380516001836020036101000a031916815260200191505b50945050505050602060405180830381600087803b15801561187b57600080fd5b505af115801561188f573d6000803e3d6000fd5b505050506040513d60208110156118a557600080fd5b81019080805190602001909291905050501515611950576040517f08c379a00000000000000000000000000000000000000000000000000000000081526004018080602001828103825260238152602001807f756e61626c6520746f207472616e73666572416e6443616c6c20746f206f726181526020017f636c65000000000000000000000000000000000000000000000000000000000081525060400191505060405180910390fd5b60016004600082825401925050819055508090509392505050565b600073ffffffffffffffffffffffffffffffffffffffff168173ffffffffffffffffffffffffffffffffffffffff16141515156119a757600080fd5b8073ffffffffffffffffffffffffffffffffffffffff16600660009054906101000a900473ffffffffffffffffffffffffffffffffffffffff1673ffffffffffffffffffffffffffffffffffffffff167f8be0079c531659141344cd1fd0a4f28419497f9722a3daafe3b4186f6b6457e060405160405180910390a380600660006101000a81548173ffffffffffffffffffffffffffffffffffffffff021916908373ffffffffffffffffffffffffffffffffffffffff16021790555050565b6000611a80838560800151611ba390919063ffffffff16565b611a8d8460800151611e41565b600090505b8151811015611ad657611ac98282815181101515611aac57fe5b906020019060200201518560800151611ba390919063ffffffff16565b8080600101915050611a92565b611ae38460800151611e4f565b50505050565b611af161224c565b611b018560800151610100611e5d565b50838560000190600019169081600019168152505082856020019073ffffffffffffffffffffffffffffffffffffffff16908173ffffffffffffffffffffffffffffffffffffffff16815250508185604001907bffffffffffffffffffffffffffffffffffffffffffffffffffffffff191690817bffffffffffffffffffffffffffffffffffffffffffffffffffffffff191681525050849050949350505050565b611bb08260038351611eb7565b611bc3818361201590919063ffffffff16565b505050565b600081121515611be357611bde82600083611eb7565b611c12565b611c11826001837fffffffffffffffffffffffffffffffffffffffffffffffffffffffffffffffff03611eb7565b5b5050565b6060600360009054906101000a900473ffffffffffffffffffffffffffffffffffffffff1673ffffffffffffffffffffffffffffffffffffffff16634042994690507c01000000000000000000000000000000000000000000000000000000000260008084600001518560200151866040015187606001516001896080015160000151604051602401808973ffffffffffffffffffffffffffffffffffffffff1673ffffffffffffffffffffffffffffffffffffffff16815260200188815260200187600019166000191681526020018673ffffffffffffffffffffffffffffffffffffffff1673ffffffffffffffffffffffffffffffffffffffff168152602001857bffffffffffffffffffffffffffffffffffffffffffffffffffffffff19167bffffffffffffffffffffffffffffffffffffffffffffffffffffffff1916815260200184815260200183815260200180602001828103825283818151815260200191508051906020019080838360005b83811015611da4578082015181840152602081019050611d89565b50505050905090810190601f168015611dd15780820380516001836020036101000a031916815260200191505b509950505050505050505050604051602081830303815290604052907bffffffffffffffffffffffffffffffffffffffffffffffffffffffff19166020820180517bffffffffffffffffffffffffffffffffffffffffffffffffffffffff83818316178352505050509050919050565b611e4c816004612037565b50565b611e5a816007612037565b50565b611e656122ba565b6000602083811515611e7357fe5b06141515611e9057602082811515611e8757fe5b06602003820191505b81836020018181525050604051808452600081528281016020016040525082905092915050565b601781111515611ee957611ee38160058460ff169060020a0260ff16178461205c90919063ffffffff16565b50612010565b60ff81111515611f3057611f13601860058460ff169060020a02178461205c90919063ffffffff16565b50611f2a8160018561207c9092919063ffffffff16565b5061200f565b61ffff81111515611f7857611f5b601960058460ff169060020a02178461205c90919063ffffffff16565b50611f728160028561207c9092919063ffffffff16565b5061200e565b63ffffffff81111515611fc257611fa5601a60058460ff169060020a02178461205c90919063ffffffff16565b50611fbc8160048561207c9092919063ffffffff16565b5061200d565b67ffffffffffffffff8111151561200c57611ff3601b60058460ff169060020a02178461205c90919063ffffffff16565b5061200a8160088561207c9092919063ffffffff16565b505b5b5b5b5b505050565b61201d6122ba565b61202f8384600001515184855161209e565b905092915050565b612057601f60058360ff169060020a02178361205c90919063ffffffff16565b505050565b6120646122ba565b612074838460000151518461215b565b905092915050565b6120846122ba565b6120958485600001515185856121ab565b90509392505050565b6120a66122ba565b6000806000855185111515156120bb57600080fd5b876020015185880111156120e6576120e58860026120df8b602001518b8a0161220c565b02612228565b5b8751805188602083010194508089880111156121025788870182525b60208801935050505b602085101515612130578151835260208301925060208201915060208503945061210b565b6001856020036101000a03905080198251168184511681811785525050879350505050949350505050565b6121636122ba565b83602001518310151561218257612181846002866020015102612228565b5b835180516020858301018481538186141561219e576001820183525b5050508390509392505050565b6121b36122ba565b6000856020015185840111156121d3576121d286600287860102612228565b5b6001836101000a03905085518386820101858319825116178152815185880111156121fe5784870182525b505085915050949350505050565b60008183111561221e57829050612222565b8190505b92915050565b60608260000151905061223b8383611e5d565b506122468382612015565b50505050565b60c06040519081016040528060008019168152602001600073ffffffffffffffffffffffffffffffffffffffff16815260200160007bffffffffffffffffffffffffffffffffffffffffffffffffffffffff19168152602001600081526020016122b46122d4565b81525090565b604080519081016040528060608152602001600081525090565b6040805190810160405280606081526020016000815250905600a165627a7a72305820b44a34cbfff6911dac4703d2d26d16e600812fe4b7d69a0f4b177e968a3eb2690029",
  "source": "// File: ../examples/testnet/TestnetConsumerBase.sol\n\npragma solidity 0.4.24;\n\nimport \"./ChainlinkClient.sol\";\nimport \"openzeppelin-solidity/contracts/ownership/Ownable.sol\";\n\n\ncontract ATestnetConsumer is ChainlinkClient, Ownable {\n    uint256 constant private ORACLE_PAYMENT = 1 * LINK; // solium-disable-line zeppelin/no-arithmetic-operations\n\n    uint256 public currentPrice;\n    int256 public changeDay;\n    bytes32 public lastMarket;\n\n    event RequestEthereumPriceFulfilled(\n        bytes32 indexed requestId,\n        uint256 indexed price\n    );\n\n    event RequestEthereumChangeFulfilled(\n        bytes32 indexed requestId,\n        int256 indexed change\n    );\n\n    event RequestEthereumLastMarket(\n        bytes32 indexed requestId,\n        bytes32 indexed market\n    );\n\n    constructor() Ownable() public {\n        setPublicChainlinkToken();\n    }\n\n    function requestEthereumPrice(address _oracle, string _jobId)\n        public\n        onlyOwner\n    {\n        Chainlink.Request memory req = buildChainlinkRequest(stringToBytes32(_jobId), this, this.fulfillEthereumPrice.selector);\n        req.add(\"url\", \"https://min-api.cryptocompare.com/data/price?fsym=ETH&tsyms=USD\");\n        req.add(\"path\", \"USD\");\n        req.addInt(\"times\", 100);\n        sendChainlinkRequestTo(_oracle, req, ORACLE_PAYMENT);\n    }\n\n    function requestEthereumChange(address _oracle, string _jobId)\n        public\n        onlyOwner\n    {\n        Chainlink.Request memory req = buildChainlinkRequest(stringToBytes32(_jobId), this, this.fulfillEthereumChange.selector);\n        req.add(\"url\", \"https://min-api.cryptocompare.com/data/pricemultifull?fsyms=ETH&tsyms=USD\");\n        req.add(\"path\", \"RAW.ETH.USD.CHANGEPCTDAY\");\n        req.addInt(\"times\", 1000000000);\n        sendChainlinkRequestTo(_oracle, req, ORACLE_PAYMENT);\n    }\n\n    function requestEthereumLastMarket(address _oracle, string _jobId)\n        public\n        onlyOwner\n    {\n        Chainlink.Request memory req = buildChainlinkRequest(stringToBytes32(_jobId), this, this.fulfillEthereumLastMarket.selector);\n        req.add(\"url\", \"https://min-api.cryptocompare.com/data/pricemultifull?fsyms=ETH&tsyms=USD\");\n        string[] memory path = new string[](4);\n        path[0] = \"RAW\";\n        path[1] = \"ETH\";\n        path[2] = \"USD\";\n        path[3] = \"LASTMARKET\";\n        req.addStringArray(\"path\", path);\n        sendChainlinkRequestTo(_oracle, req, ORACLE_PAYMENT);\n    }\n\n    function fulfillEthereumPrice(bytes32 _requestId, uint256 _price)\n        public\n        recordChainlinkFulfillment(_requestId)\n    {\n        emit RequestEthereumPriceFulfilled(_requestId, _price);\n        currentPrice = _price;\n    }\n\n    function fulfillEthereumChange(bytes32 _requestId, int256 _change)\n        public\n        recordChainlinkFulfillment(_requestId)\n    {\n        emit RequestEthereumChangeFulfilled(_requestId, _change);\n        changeDay = _change;\n    }\n\n    function fulfillEthereumLastMarket(bytes32 _requestId, bytes32 _market)\n        public\n        recordChainlinkFulfillment(_requestId)\n    {\n        emit RequestEthereumLastMarket(_requestId, _market);\n        lastMarket = _market;\n    }\n\n    function getChainlinkToken() public view returns (address) {\n        return chainlinkTokenAddress();\n    }\n\n    function withdrawLink() public onlyOwner {\n        LinkTokenInterface link = LinkTokenInterface(chainlinkTokenAddress());\n        require(link.transfer(msg.sender, link.balanceOf(address(this))), \"Unable to transfer\");\n    }\n\n    function stringToBytes32(string memory source) private pure returns (bytes32 result) {\n        bytes memory tempEmptyStringTest = bytes(source);\n        if (tempEmptyStringTest.length == 0) {\n            return 0x0;\n        }\n\n        assembly {\n        result := mload(add(source, 32))\n        }\n    }\n\n}\n",
  "sourcePath": "/Users/antonasso/programming/posiedon/contracts/TestnetConsumerBase.sol",
  "compiler": {
    "name": "solc",
    "version": "0.4.24+commit.e67f0147.Emscripten.clang"
  },
  "schemaVersion": "3.0.14",
  "updatedAt": "2019-09-07T03:47:49.170Z",
  "devdoc": {
    "methods": {
      "isOwner()": {
        "return": "true if `msg.sender` is the owner of the contract."
      },
      "owner()": {
        "return": "the address of the owner."
      },
      "renounceOwnership()": {
        "details": "Allows the current owner to relinquish control of the contract."
      },
      "transferOwnership(address)": {
        "details": "Allows the current owner to transfer control of the contract to a newOwner.",
        "params": {
          "newOwner": "The address to transfer ownership to."
        }
      }
    }
  },
  "userdoc": {
    "methods": {
      "renounceOwnership()": {
        "notice": "Renouncing to ownership will leave the contract without an owner. It will not be possible to call the functions with the `onlyOwner` modifier anymore."
      }
    }
  }
}