{
  "contractName": "PoseidonNetwork",
  "abi": [
    {
      "constant": false,
      "inputs": [],
      "name": "renounceOwnership",
      "outputs": [],
      "payable": false,
      "stateMutability": "nonpayable",
      "type": "function"
    },
    {
      "constant": true,
      "inputs": [],
      "name": "owner",
      "outputs": [
        {
          "name": "",
          "type": "address"
        }
      ],
      "payable": false,
      "stateMutability": "view",
      "type": "function"
    },
    {
      "constant": true,
      "inputs": [],
      "name": "isOwner",
      "outputs": [
        {
          "name": "",
          "type": "bool"
        }
      ],
      "payable": false,
      "stateMutability": "view",
      "type": "function"
    },
    {
      "constant": false,
      "inputs": [
        {
          "name": "newOwner",
          "type": "address"
        }
      ],
      "name": "transferOwnership",
      "outputs": [],
      "payable": false,
      "stateMutability": "nonpayable",
      "type": "function"
    },
    {
      "inputs": [
        {
          "name": "_linkTokenAddress",
          "type": "address"
        },
        {
          "name": "_poseidonTokenAddess",
          "type": "address"
        }
      ],
      "payable": false,
      "stateMutability": "nonpayable",
      "type": "constructor"
    },
    {
      "anonymous": false,
      "inputs": [
        {
          "indexed": true,
          "name": "requestId",
          "type": "bytes32"
        },
        {
          "indexed": true,
          "name": "superNode",
          "type": "address"
        },
        {
          "indexed": false,
          "name": "witness",
          "type": "bytes32"
        },
        {
          "indexed": false,
          "name": "networkPower",
          "type": "uint256"
        },
        {
          "indexed": false,
          "name": "nodePower",
          "type": "uint256"
        }
      ],
      "name": "RequestNetworkStatusFulfilled",
      "type": "event"
    },
    {
      "anonymous": false,
      "inputs": [
        {
          "indexed": true,
          "name": "previousOwner",
          "type": "address"
        },
        {
          "indexed": true,
          "name": "newOwner",
          "type": "address"
        }
      ],
      "name": "OwnershipTransferred",
      "type": "event"
    },
    {
      "anonymous": false,
      "inputs": [
        {
          "indexed": true,
          "name": "id",
          "type": "bytes32"
        }
      ],
      "name": "ChainlinkRequested",
      "type": "event"
    },
    {
      "anonymous": false,
      "inputs": [
        {
          "indexed": true,
          "name": "id",
          "type": "bytes32"
        }
      ],
      "name": "ChainlinkFulfilled",
      "type": "event"
    },
    {
      "anonymous": false,
      "inputs": [
        {
          "indexed": true,
          "name": "id",
          "type": "bytes32"
        }
      ],
      "name": "ChainlinkCancelled",
      "type": "event"
    },
    {
      "constant": false,
      "inputs": [
        {
          "name": "_registryContract",
          "type": "address"
        }
      ],
      "name": "setRegistryContract",
      "outputs": [],
      "payable": false,
      "stateMutability": "nonpayable",
      "type": "function"
    },
    {
      "constant": false,
      "inputs": [
        {
          "name": "_oracle",
          "type": "address"
        },
        {
          "name": "_jobId",
          "type": "string"
        }
      ],
      "name": "requestWithdrawToken",
      "outputs": [],
      "payable": false,
      "stateMutability": "nonpayable",
      "type": "function"
    },
    {
      "constant": false,
      "inputs": [
        {
          "name": "_requestId",
          "type": "bytes32"
        },
        {
          "name": "_superNode",
          "type": "address"
        },
        {
          "name": "_witness",
          "type": "bytes32"
        },
        {
          "name": "_networkPower",
          "type": "uint256"
        },
        {
          "name": "_nodePower",
          "type": "uint256"
        }
      ],
      "name": "distributeToken",
      "outputs": [],
      "payable": false,
      "stateMutability": "nonpayable",
      "type": "function"
    },
    {
      "constant": true,
      "inputs": [],
      "name": "getChainlinkToken",
      "outputs": [
        {
          "name": "",
          "type": "address"
        }
      ],
      "payable": false,
      "stateMutability": "view",
      "type": "function"
    },
    {
      "constant": false,
      "inputs": [],
      "name": "withdrawLink",
      "outputs": [],
      "payable": false,
      "stateMutability": "nonpayable",
      "type": "function"
    }
  ],
  "bytecode": "0x6080604052600160045534801561001557600080fd5b50604051604080611965833981018060405281019080805190602001909291908051906020019092919050505033600660006101000a81548173ffffffffffffffffffffffffffffffffffffffff021916908373ffffffffffffffffffffffffffffffffffffffff160217905550600660009054906101000a900473ffffffffffffffffffffffffffffffffffffffff1673ffffffffffffffffffffffffffffffffffffffff16600073ffffffffffffffffffffffffffffffffffffffff167f8be0079c531659141344cd1fd0a4f28419497f9722a3daafe3b4186f6b6457e060405160405180910390a361011882610137640100000000026401000000009004565b61013081610137640100000000026401000000009004565b505061017b565b80600860006101000a81548173ffffffffffffffffffffffffffffffffffffffff021916908373ffffffffffffffffffffffffffffffffffffffff16021790555050565b6117db8061018a6000396000f300608060405260043610610099576000357c0100000000000000000000000000000000000000000000000000000000900463ffffffff168063028ebc441461009e578063165d35e1146100e157806338f6e68614610138578063715018a6146101c15780638da5cb5b146101d85780638dc654a21461022f5780638f32d59b14610246578063d4e8a65314610275578063f2fde38b146102e8575b600080fd5b3480156100aa57600080fd5b506100df600480360381019080803573ffffffffffffffffffffffffffffffffffffffff16906020019092919050505061032b565b005b3480156100ed57600080fd5b506100f6610382565b604051808273ffffffffffffffffffffffffffffffffffffffff1673ffffffffffffffffffffffffffffffffffffffff16815260200191505060405180910390f35b34801561014457600080fd5b506101bf600480360381019080803573ffffffffffffffffffffffffffffffffffffffff169060200190929190803590602001908201803590602001908080601f0160208091040260200160405190810160405280939291908181526020018383808284378201915050505050509192919290505050610391565b005b3480156101cd57600080fd5b506101d6610553565b005b3480156101e457600080fd5b506101ed610627565b604051808273ffffffffffffffffffffffffffffffffffffffff1673ffffffffffffffffffffffffffffffffffffffff16815260200191505060405180910390f35b34801561023b57600080fd5b50610244610651565b005b34801561025257600080fd5b5061025b61089a565b604051808215151515815260200191505060405180910390f35b34801561028157600080fd5b506102e66004803603810190808035600019169060200190929190803573ffffffffffffffffffffffffffffffffffffffff169060200190929190803560001916906020019092919080359060200190929190803590602001909291905050506108f2565b005b3480156102f457600080fd5b50610329600480360381019080803573ffffffffffffffffffffffffffffffffffffffff169060200190929190505050610ad9565b005b61033361089a565b151561033e57600080fd5b80600760006101000a81548173ffffffffffffffffffffffffffffffffffffffff021916908373ffffffffffffffffffffffffffffffffffffffff16021790555050565b600061038c610af8565b905090565b61039961170d565b60606103d16103a784610b22565b3063d4e8a6537c010000000000000000000000000000000000000000000000000000000002610b4d565b9150600760009054906101000a900473ffffffffffffffffffffffffffffffffffffffff1673ffffffffffffffffffffffffffffffffffffffff1663a43b6d7a6040518163ffffffff167c0100000000000000000000000000000000000000000000000000000000028152600401600060405180830381600087803b15801561045957600080fd5b505af115801561046d573d6000803e3d6000fd5b505050506040513d6000823e3d601f19601f82011682018060405250602081101561049757600080fd5b8101908080516401000000008111156104af57600080fd5b828101905060208101848111156104c557600080fd5b81518560018202830111640100000000821117156104e257600080fd5b505092919050505090506105366040805190810160405280600381526020017f75726c00000000000000000000000000000000000000000000000000000000008152508284610b7e9092919063ffffffff16565b61054c8483670de0b6b3a7640000600102610bb1565b5050505050565b61055b61089a565b151561056657600080fd5b600073ffffffffffffffffffffffffffffffffffffffff16600660009054906101000a900473ffffffffffffffffffffffffffffffffffffffff1673ffffffffffffffffffffffffffffffffffffffff167f8be0079c531659141344cd1fd0a4f28419497f9722a3daafe3b4186f6b6457e060405160405180910390a36000600660006101000a81548173ffffffffffffffffffffffffffffffffffffffff021916908373ffffffffffffffffffffffffffffffffffffffff160217905550565b6000600660009054906101000a900473ffffffffffffffffffffffffffffffffffffffff16905090565b600061065b61089a565b151561066657600080fd5b61066e610af8565b90508073ffffffffffffffffffffffffffffffffffffffff1663a9059cbb338373ffffffffffffffffffffffffffffffffffffffff166370a08231306040518263ffffffff167c0100000000000000000000000000000000000000000000000000000000028152600401808273ffffffffffffffffffffffffffffffffffffffff1673ffffffffffffffffffffffffffffffffffffffff168152602001915050602060405180830381600087803b15801561072857600080fd5b505af115801561073c573d6000803e3d6000fd5b505050506040513d602081101561075257600080fd5b81019080805190602001909291905050506040518363ffffffff167c0100000000000000000000000000000000000000000000000000000000028152600401808373ffffffffffffffffffffffffffffffffffffffff1673ffffffffffffffffffffffffffffffffffffffff16815260200182815260200192505050602060405180830381600087803b1580156107e857600080fd5b505af11580156107fc573d6000803e3d6000fd5b505050506040513d602081101561081257600080fd5b81019080805190602001909291905050501515610897576040517f08c379a00000000000000000000000000000000000000000000000000000000081526004018080602001828103825260128152602001807f556e61626c6520746f207472616e73666572000000000000000000000000000081525060200191505060405180910390fd5b50565b6000600660009054906101000a900473ffffffffffffffffffffffffffffffffffffffff1673ffffffffffffffffffffffffffffffffffffffff163373ffffffffffffffffffffffffffffffffffffffff1614905090565b8460056000826000191660001916815260200190815260200160002060009054906101000a900473ffffffffffffffffffffffffffffffffffffffff1673ffffffffffffffffffffffffffffffffffffffff163373ffffffffffffffffffffffffffffffffffffffff161415156109f7576040517f08c379a00000000000000000000000000000000000000000000000000000000081526004018080602001828103825260288152602001807f536f75726365206d75737420626520746865206f7261636c65206f662074686581526020017f207265717565737400000000000000000000000000000000000000000000000081525060400191505060405180910390fd5b60056000826000191660001916815260200190815260200160002060006101000a81549073ffffffffffffffffffffffffffffffffffffffff021916905580600019167f7cc135e0cebb02c3480ae5d74d377283180a2601f8f644edf7987b009316c63a60405160405180910390a28473ffffffffffffffffffffffffffffffffffffffff1686600019167f83667356d33b4965b97353816d97d7220d91bd7de4375b6d8b56e9229adbc41a868686604051808460001916600019168152602001838152602001828152602001935050505060405180910390a3505050505050565b610ae161089a565b1515610aec57600080fd5b610af581610f3d565b50565b6000600260009054906101000a900473ffffffffffffffffffffffffffffffffffffffff16905090565b60006060829050600081511415610b3f5760006001029150610b47565b602083015191505b50919050565b610b5561170d565b610b5d61170d565b610b7485858584611039909392919063ffffffff16565b9150509392505050565b610b958284608001516110f390919063ffffffff16565b610bac8184608001516110f390919063ffffffff16565b505050565b600030600454604051602001808373ffffffffffffffffffffffffffffffffffffffff1673ffffffffffffffffffffffffffffffffffffffff166c01000000000000000000000000028152601401828152602001925050506040516020818303038152906040526040518082805190602001908083835b602083101515610c4d5780518252602082019150602081019050602083039250610c28565b6001836020036101000a038019825116818451168082178552505050505050905001915050604051809103902090506004548360600181815250508360056000836000191660001916815260200190815260200160002060006101000a81548173ffffffffffffffffffffffffffffffffffffffff021916908373ffffffffffffffffffffffffffffffffffffffff16021790555080600019167fb5e6e01e79f91267dc17b4e6314d5d4d03593d2ceee0fbb452b750bd70ea5af960405160405180910390a2600260009054906101000a900473ffffffffffffffffffffffffffffffffffffffff1673ffffffffffffffffffffffffffffffffffffffff16634000aea08584610d5c87611118565b6040518463ffffffff167c0100000000000000000000000000000000000000000000000000000000028152600401808473ffffffffffffffffffffffffffffffffffffffff1673ffffffffffffffffffffffffffffffffffffffff16815260200183815260200180602001828103825283818151815260200191508051906020019080838360005b83811015610dff578082015181840152602081019050610de4565b50505050905090810190601f168015610e2c5780820380516001836020036101000a031916815260200191505b50945050505050602060405180830381600087803b158015610e4d57600080fd5b505af1158015610e61573d6000803e3d6000fd5b505050506040513d6020811015610e7757600080fd5b81019080805190602001909291905050501515610f22576040517f08c379a00000000000000000000000000000000000000000000000000000000081526004018080602001828103825260238152602001807f756e61626c6520746f207472616e73666572416e6443616c6c20746f206f726181526020017f636c65000000000000000000000000000000000000000000000000000000000081525060400191505060405180910390fd5b60016004600082825401925050819055508090509392505050565b600073ffffffffffffffffffffffffffffffffffffffff168173ffffffffffffffffffffffffffffffffffffffff1614151515610f7957600080fd5b8073ffffffffffffffffffffffffffffffffffffffff16600660009054906101000a900473ffffffffffffffffffffffffffffffffffffffff1673ffffffffffffffffffffffffffffffffffffffff167f8be0079c531659141344cd1fd0a4f28419497f9722a3daafe3b4186f6b6457e060405160405180910390a380600660006101000a81548173ffffffffffffffffffffffffffffffffffffffff021916908373ffffffffffffffffffffffffffffffffffffffff16021790555050565b61104161170d565b6110518560800151610100611343565b50838560000190600019169081600019168152505082856020019073ffffffffffffffffffffffffffffffffffffffff16908173ffffffffffffffffffffffffffffffffffffffff16815250508185604001907bffffffffffffffffffffffffffffffffffffffffffffffffffffffff191690817bffffffffffffffffffffffffffffffffffffffffffffffffffffffff191681525050849050949350505050565b611100826003835161139d565b61111381836114fb90919063ffffffff16565b505050565b6060600360009054906101000a900473ffffffffffffffffffffffffffffffffffffffff1673ffffffffffffffffffffffffffffffffffffffff16634042994690507c01000000000000000000000000000000000000000000000000000000000260008084600001518560200151866040015187606001516001896080015160000151604051602401808973ffffffffffffffffffffffffffffffffffffffff1673ffffffffffffffffffffffffffffffffffffffff16815260200188815260200187600019166000191681526020018673ffffffffffffffffffffffffffffffffffffffff1673ffffffffffffffffffffffffffffffffffffffff168152602001857bffffffffffffffffffffffffffffffffffffffffffffffffffffffff19167bffffffffffffffffffffffffffffffffffffffffffffffffffffffff1916815260200184815260200183815260200180602001828103825283818151815260200191508051906020019080838360005b838110156112a657808201518184015260208101905061128b565b50505050905090810190601f1680156112d35780820380516001836020036101000a031916815260200191505b509950505050505050505050604051602081830303815290604052907bffffffffffffffffffffffffffffffffffffffffffffffffffffffff19166020820180517bffffffffffffffffffffffffffffffffffffffffffffffffffffffff83818316178352505050509050919050565b61134b61177b565b600060208381151561135957fe5b061415156113765760208281151561136d57fe5b06602003820191505b81836020018181525050604051808452600081528281016020016040525082905092915050565b6017811115156113cf576113c98160058460ff169060020a0260ff16178461151d90919063ffffffff16565b506114f6565b60ff81111515611416576113f9601860058460ff169060020a02178461151d90919063ffffffff16565b506114108160018561153d9092919063ffffffff16565b506114f5565b61ffff8111151561145e57611441601960058460ff169060020a02178461151d90919063ffffffff16565b506114588160028561153d9092919063ffffffff16565b506114f4565b63ffffffff811115156114a85761148b601a60058460ff169060020a02178461151d90919063ffffffff16565b506114a28160048561153d9092919063ffffffff16565b506114f3565b67ffffffffffffffff811115156114f2576114d9601b60058460ff169060020a02178461151d90919063ffffffff16565b506114f08160088561153d9092919063ffffffff16565b505b5b5b5b5b505050565b61150361177b565b6115158384600001515184855161155f565b905092915050565b61152561177b565b611535838460000151518461161c565b905092915050565b61154561177b565b61155684856000015151858561166c565b90509392505050565b61156761177b565b60008060008551851115151561157c57600080fd5b876020015185880111156115a7576115a68860026115a08b602001518b8a016116cd565b026116e9565b5b8751805188602083010194508089880111156115c35788870182525b60208801935050505b6020851015156115f157815183526020830192506020820191506020850394506115cc565b6001856020036101000a03905080198251168184511681811785525050879350505050949350505050565b61162461177b565b836020015183101515611643576116428460028660200151026116e9565b5b835180516020858301018481538186141561165f576001820183525b5050508390509392505050565b61167461177b565b60008560200151858401111561169457611693866002878601026116e9565b5b6001836101000a03905085518386820101858319825116178152815185880111156116bf5784870182525b505085915050949350505050565b6000818311156116df578290506116e3565b8190505b92915050565b6060826000015190506116fc8383611343565b5061170783826114fb565b50505050565b60c06040519081016040528060008019168152602001600073ffffffffffffffffffffffffffffffffffffffff16815260200160007bffffffffffffffffffffffffffffffffffffffffffffffffffffffff1916815260200160008152602001611775611795565b81525090565b604080519081016040528060608152602001600081525090565b6040805190810160405280606081526020016000815250905600a165627a7a723058201d4383a8bed7ef0fd0e4c67347bfe3dd8290e2cffef4e26677e37d5f2b62e55c0029",
  "source": "// File: ../examples/testnet/TestnetConsumerBase.sol\n\npragma solidity 0.4.24;\n\nimport \"./ChainlinkClient.sol\";\nimport \"openzeppelin-solidity/contracts/ownership/Ownable.sol\";\nimport \"./RegistryInterface.sol\";\nimport \"./PoseidonTokenInterface.sol\";\n\n\ncontract PoseidonNetwork is ChainlinkClient, Ownable {\n    uint256 constant private ORACLE_PAYMENT = 1 * LINK; // solium-disable-line zeppelin/no-arithmetic-operations\n    RegistryInterface private registry;\n    PoseidonTokenInterface private poseidonToken;\n\n    event RequestNetworkStatusFulfilled(\n        bytes32 indexed requestId,\n        address indexed superNode,\n        bytes32 witness,\n        uint256 networkPower,\n        uint256 nodePower\n    );\n\n    constructor(address _linkTokenAddress, address _poseidonTokenAddess) Ownable() public {\n        setChainlinkToken(_linkTokenAddress);\n        setChainlinkToken(_poseidonTokenAddess);\n    }\n\n    function setRegistryContract(address _registryContract) public onlyOwner {\n        registry = RegistryInterface(_registryContract);\n    }\n\n    function requestWithdrawToken(address _oracle, string _jobId)\n        public\n    {\n        Chainlink.Request memory req = buildChainlinkRequest(stringToBytes32(_jobId), this, this.distributeToken.selector);\n        string memory apiEndpoint = registry.selectSuperNode();\n        req.add(\"url\", apiEndpoint);\n        sendChainlinkRequestTo(_oracle, req, ORACLE_PAYMENT);\n    }\n\n    function distributeToken(bytes32 _requestId, address _superNode, bytes32 _witness, uint256 _networkPower, uint256 _nodePower)\n        public\n        recordChainlinkFulfillment(_requestId)\n    {\n        emit RequestNetworkStatusFulfilled(_requestId, _superNode, _witness, _networkPower, _nodePower);\n    }\n\n    function getChainlinkToken() public view returns (address) {\n        return chainlinkTokenAddress();\n    }\n\n    function withdrawLink() public onlyOwner {\n        LinkTokenInterface link = LinkTokenInterface(chainlinkTokenAddress());\n        require(link.transfer(msg.sender, link.balanceOf(address(this))), \"Unable to transfer\");\n    }\n\n    /**\n    * @notice Sets the Poseidon token address\n    * @param _link The address of the LINK token contract\n    */\n    function setChainlinkToken(address _link) internal {\n        poseidonToken = PoseidonTokenInterface(_link);\n    }\n\n    function stringToBytes32(string memory source) private pure returns (bytes32 result) {\n        bytes memory tempEmptyStringTest = bytes(source);\n        if (tempEmptyStringTest.length == 0) {\n            return 0x0;\n        }\n\n        assembly {\n        result := mload(add(source, 32))\n        }\n    }\n\n}\n",
  "sourcePath": "/Users/antonasso/programming/posiedon/contracts/PoseidonNetwork.sol",
  "compiler": {
    "name": "solc",
    "version": "0.4.24+commit.e67f0147.Emscripten.clang"
  },
  "schemaVersion": "3.0.15",
  "updatedAt": "2019-09-12T06:25:18.390Z",
  "devdoc": {
    "methods": {
      "isOwner()": {
        "return": "true if `msg.sender` is the owner of the contract."
      },
      "owner()": {
        "return": "the address of the owner."
      },
      "renounceOwnership()": {
        "details": "Allows the current owner to relinquish control of the contract."
      },
      "transferOwnership(address)": {
        "details": "Allows the current owner to transfer control of the contract to a newOwner.",
        "params": {
          "newOwner": "The address to transfer ownership to."
        }
      }
    }
  },
  "userdoc": {
    "methods": {
      "renounceOwnership()": {
        "notice": "Renouncing to ownership will leave the contract without an owner. It will not be possible to call the functions with the `onlyOwner` modifier anymore."
      }
    }
  }
}