{
  "contractName": "PoseidonNetwork",
  "abi": [
    {
      "constant": false,
      "inputs": [],
      "name": "renounceOwnership",
      "outputs": [],
      "payable": false,
      "stateMutability": "nonpayable",
      "type": "function"
    },
    {
      "constant": true,
      "inputs": [],
      "name": "owner",
      "outputs": [
        {
          "name": "",
          "type": "address"
        }
      ],
      "payable": false,
      "stateMutability": "view",
      "type": "function"
    },
    {
      "constant": true,
      "inputs": [],
      "name": "isOwner",
      "outputs": [
        {
          "name": "",
          "type": "bool"
        }
      ],
      "payable": false,
      "stateMutability": "view",
      "type": "function"
    },
    {
      "constant": true,
      "inputs": [],
      "name": "currentPrice",
      "outputs": [
        {
          "name": "",
          "type": "uint256"
        }
      ],
      "payable": false,
      "stateMutability": "view",
      "type": "function"
    },
    {
      "constant": false,
      "inputs": [
        {
          "name": "newOwner",
          "type": "address"
        }
      ],
      "name": "transferOwnership",
      "outputs": [],
      "payable": false,
      "stateMutability": "nonpayable",
      "type": "function"
    },
    {
      "inputs": [
        {
          "name": "_tokenAddress",
          "type": "address"
        }
      ],
      "payable": false,
      "stateMutability": "nonpayable",
      "type": "constructor"
    },
    {
      "anonymous": false,
      "inputs": [
        {
          "indexed": true,
          "name": "requestId",
          "type": "bytes32"
        },
        {
          "indexed": true,
          "name": "superNode",
          "type": "address"
        },
        {
          "indexed": false,
          "name": "witness",
          "type": "bytes32"
        },
        {
          "indexed": false,
          "name": "networkPower",
          "type": "uint256"
        },
        {
          "indexed": false,
          "name": "nodePower",
          "type": "uint256"
        }
      ],
      "name": "RequestNodeStatusFulfilled",
      "type": "event"
    },
    {
      "anonymous": false,
      "inputs": [
        {
          "indexed": true,
          "name": "requestId",
          "type": "bytes32"
        },
        {
          "indexed": true,
          "name": "price",
          "type": "uint256"
        }
      ],
      "name": "RequestEthereumPriceFulfilled",
      "type": "event"
    },
    {
      "anonymous": false,
      "inputs": [
        {
          "indexed": true,
          "name": "previousOwner",
          "type": "address"
        },
        {
          "indexed": true,
          "name": "newOwner",
          "type": "address"
        }
      ],
      "name": "OwnershipTransferred",
      "type": "event"
    },
    {
      "anonymous": false,
      "inputs": [
        {
          "indexed": true,
          "name": "id",
          "type": "bytes32"
        }
      ],
      "name": "ChainlinkRequested",
      "type": "event"
    },
    {
      "anonymous": false,
      "inputs": [
        {
          "indexed": true,
          "name": "id",
          "type": "bytes32"
        }
      ],
      "name": "ChainlinkFulfilled",
      "type": "event"
    },
    {
      "anonymous": false,
      "inputs": [
        {
          "indexed": true,
          "name": "id",
          "type": "bytes32"
        }
      ],
      "name": "ChainlinkCancelled",
      "type": "event"
    },
    {
      "constant": false,
      "inputs": [
        {
          "name": "_registryContract",
          "type": "address"
        }
      ],
      "name": "setRegistryContract",
      "outputs": [],
      "payable": false,
      "stateMutability": "nonpayable",
      "type": "function"
    },
    {
      "constant": false,
      "inputs": [
        {
          "name": "_oracle",
          "type": "address"
        },
        {
          "name": "_jobId",
          "type": "string"
        }
      ],
      "name": "requestWithdrawQQQToken",
      "outputs": [],
      "payable": false,
      "stateMutability": "nonpayable",
      "type": "function"
    },
    {
      "constant": false,
      "inputs": [
        {
          "name": "_requestId",
          "type": "bytes32"
        },
        {
          "name": "_superNode",
          "type": "address"
        },
        {
          "name": "_witness",
          "type": "bytes32"
        },
        {
          "name": "_networkPower",
          "type": "uint256"
        },
        {
          "name": "_nodePower",
          "type": "uint256"
        }
      ],
      "name": "distributeQQQToken",
      "outputs": [],
      "payable": false,
      "stateMutability": "nonpayable",
      "type": "function"
    },
    {
      "constant": false,
      "inputs": [
        {
          "name": "_oracle",
          "type": "address"
        },
        {
          "name": "_jobId",
          "type": "string"
        }
      ],
      "name": "requestEthereumPrice",
      "outputs": [],
      "payable": false,
      "stateMutability": "nonpayable",
      "type": "function"
    },
    {
      "constant": false,
      "inputs": [
        {
          "name": "_requestId",
          "type": "bytes32"
        },
        {
          "name": "_price",
          "type": "uint256"
        }
      ],
      "name": "fulfillEthereumPrice",
      "outputs": [],
      "payable": false,
      "stateMutability": "nonpayable",
      "type": "function"
    },
    {
      "constant": true,
      "inputs": [],
      "name": "getChainlinkToken",
      "outputs": [
        {
          "name": "",
          "type": "address"
        }
      ],
      "payable": false,
      "stateMutability": "view",
      "type": "function"
    },
    {
      "constant": false,
      "inputs": [],
      "name": "withdrawLink",
      "outputs": [],
      "payable": false,
      "stateMutability": "nonpayable",
      "type": "function"
    }
  ],
  "bytecode": "0x6080604052600160045534801561001557600080fd5b50604051602080611e6a8339810180604052810190808051906020019092919050505033600660006101000a81548173ffffffffffffffffffffffffffffffffffffffff021916908373ffffffffffffffffffffffffffffffffffffffff160217905550600660009054906101000a900473ffffffffffffffffffffffffffffffffffffffff1673ffffffffffffffffffffffffffffffffffffffff16600073ffffffffffffffffffffffffffffffffffffffff167f8be0079c531659141344cd1fd0a4f28419497f9722a3daafe3b4186f6b6457e060405160405180910390a361010e81610114640100000000026401000000009004565b50610158565b80600260006101000a81548173ffffffffffffffffffffffffffffffffffffffff021916908373ffffffffffffffffffffffffffffffffffffffff16021790555050565b611d03806101676000396000f3006080604052600436106100ba576000357c0100000000000000000000000000000000000000000000000000000000900463ffffffff168063028ebc44146100bf578063165d35e114610102578063548c239714610159578063715018a6146101e25780638da5cb5b146101f95780638dc654a2146102505780638f32d59b1461026757806392cdaaf3146102965780639d1b464a146102d1578063ab643c10146102fc578063c0adc8d414610385578063f2fde38b146103f8575b600080fd5b3480156100cb57600080fd5b50610100600480360381019080803573ffffffffffffffffffffffffffffffffffffffff16906020019092919050505061043b565b005b34801561010e57600080fd5b50610117610492565b604051808273ffffffffffffffffffffffffffffffffffffffff1673ffffffffffffffffffffffffffffffffffffffff16815260200191505060405180910390f35b34801561016557600080fd5b506101e0600480360381019080803573ffffffffffffffffffffffffffffffffffffffff169060200190929190803590602001908201803590602001908080601f01602080910402602001604051908101604052809392919081815260200183838082843782019150505050505091929192905050506104a1565b005b3480156101ee57600080fd5b506101f7610663565b005b34801561020557600080fd5b5061020e610737565b604051808273ffffffffffffffffffffffffffffffffffffffff1673ffffffffffffffffffffffffffffffffffffffff16815260200191505060405180910390f35b34801561025c57600080fd5b50610265610761565b005b34801561027357600080fd5b5061027c6109aa565b604051808215151515815260200191505060405180910390f35b3480156102a257600080fd5b506102cf600480360381019080803560001916906020019092919080359060200190929190505050610a02565b005b3480156102dd57600080fd5b506102e6610bb4565b6040518082815260200191505060405180910390f35b34801561030857600080fd5b50610383600480360381019080803573ffffffffffffffffffffffffffffffffffffffff169060200190929190803590602001908201803590602001908080601f0160208091040260200160405190810160405280939291908181526020018383808284378201915050505050509192919290505050610bba565b005b34801561039157600080fd5b506103f66004803603810190808035600019169060200190929190803573ffffffffffffffffffffffffffffffffffffffff16906020019092919080356000191690602001909291908035906020019092919080359060200190929190505050610d99565b005b34801561040457600080fd5b50610439600480360381019080803573ffffffffffffffffffffffffffffffffffffffff169060200190929190505050610f80565b005b6104436109aa565b151561044e57600080fd5b80600760006101000a81548173ffffffffffffffffffffffffffffffffffffffff021916908373ffffffffffffffffffffffffffffffffffffffff16021790555050565b600061049c610f9f565b905090565b6104a9611c35565b60606104e16104b784610fc9565b3063c0adc8d47c010000000000000000000000000000000000000000000000000000000002610ff4565b9150600760009054906101000a900473ffffffffffffffffffffffffffffffffffffffff1673ffffffffffffffffffffffffffffffffffffffff1663a43b6d7a6040518163ffffffff167c0100000000000000000000000000000000000000000000000000000000028152600401600060405180830381600087803b15801561056957600080fd5b505af115801561057d573d6000803e3d6000fd5b505050506040513d6000823e3d601f19601f8201168201806040525060208110156105a757600080fd5b8101908080516401000000008111156105bf57600080fd5b828101905060208101848111156105d557600080fd5b81518560018202830111640100000000821117156105f257600080fd5b505092919050505090506106466040805190810160405280600381526020017f75726c000000000000000000000000000000000000000000000000000000000081525082846110259092919063ffffffff16565b61065c8483670de0b6b3a7640000600102611058565b5050505050565b61066b6109aa565b151561067657600080fd5b600073ffffffffffffffffffffffffffffffffffffffff16600660009054906101000a900473ffffffffffffffffffffffffffffffffffffffff1673ffffffffffffffffffffffffffffffffffffffff167f8be0079c531659141344cd1fd0a4f28419497f9722a3daafe3b4186f6b6457e060405160405180910390a36000600660006101000a81548173ffffffffffffffffffffffffffffffffffffffff021916908373ffffffffffffffffffffffffffffffffffffffff160217905550565b6000600660009054906101000a900473ffffffffffffffffffffffffffffffffffffffff16905090565b600061076b6109aa565b151561077657600080fd5b61077e610f9f565b90508073ffffffffffffffffffffffffffffffffffffffff1663a9059cbb338373ffffffffffffffffffffffffffffffffffffffff166370a08231306040518263ffffffff167c0100000000000000000000000000000000000000000000000000000000028152600401808273ffffffffffffffffffffffffffffffffffffffff1673ffffffffffffffffffffffffffffffffffffffff168152602001915050602060405180830381600087803b15801561083857600080fd5b505af115801561084c573d6000803e3d6000fd5b505050506040513d602081101561086257600080fd5b81019080805190602001909291905050506040518363ffffffff167c0100000000000000000000000000000000000000000000000000000000028152600401808373ffffffffffffffffffffffffffffffffffffffff1673ffffffffffffffffffffffffffffffffffffffff16815260200182815260200192505050602060405180830381600087803b1580156108f857600080fd5b505af115801561090c573d6000803e3d6000fd5b505050506040513d602081101561092257600080fd5b810190808051906020019092919050505015156109a7576040517f08c379a00000000000000000000000000000000000000000000000000000000081526004018080602001828103825260128152602001807f556e61626c6520746f207472616e73666572000000000000000000000000000081525060200191505060405180910390fd5b50565b6000600660009054906101000a900473ffffffffffffffffffffffffffffffffffffffff1673ffffffffffffffffffffffffffffffffffffffff163373ffffffffffffffffffffffffffffffffffffffff1614905090565b8160056000826000191660001916815260200190815260200160002060009054906101000a900473ffffffffffffffffffffffffffffffffffffffff1673ffffffffffffffffffffffffffffffffffffffff163373ffffffffffffffffffffffffffffffffffffffff16141515610b07576040517f08c379a00000000000000000000000000000000000000000000000000000000081526004018080602001828103825260288152602001807f536f75726365206d75737420626520746865206f7261636c65206f662074686581526020017f207265717565737400000000000000000000000000000000000000000000000081525060400191505060405180910390fd5b60056000826000191660001916815260200190815260200160002060006101000a81549073ffffffffffffffffffffffffffffffffffffffff021916905580600019167f7cc135e0cebb02c3480ae5d74d377283180a2601f8f644edf7987b009316c63a60405160405180910390a28183600019167f794eb9e29f6750ede99e05248d997a9ab9fa23c4a7eaff8afa729080eb7c642860405160405180910390a381600881905550505050565b60085481565b610bc2611c35565b610bca6109aa565b1515610bd557600080fd5b610c0b610be183610fc9565b306392cdaaf37c010000000000000000000000000000000000000000000000000000000002610ff4565b9050610cb36040805190810160405280600381526020017f75726c0000000000000000000000000000000000000000000000000000000000815250606060405190810160405280603f81526020017f68747470733a2f2f6d696e2d6170692e63727970746f636f6d706172652e636f81526020017f6d2f646174612f70726963653f6673796d3d455448267473796d733d55534400815250836110259092919063ffffffff16565b610d326040805190810160405280600481526020017f70617468000000000000000000000000000000000000000000000000000000008152506040805190810160405280600381526020017f5553440000000000000000000000000000000000000000000000000000000000815250836110259092919063ffffffff16565b610d7d6040805190810160405280600581526020017f74696d65730000000000000000000000000000000000000000000000000000008152506064836113e49092919063ffffffff16565b610d938382670de0b6b3a7640000600102611058565b50505050565b8460056000826000191660001916815260200190815260200160002060009054906101000a900473ffffffffffffffffffffffffffffffffffffffff1673ffffffffffffffffffffffffffffffffffffffff163373ffffffffffffffffffffffffffffffffffffffff16141515610e9e576040517f08c379a00000000000000000000000000000000000000000000000000000000081526004018080602001828103825260288152602001807f536f75726365206d75737420626520746865206f7261636c65206f662074686581526020017f207265717565737400000000000000000000000000000000000000000000000081525060400191505060405180910390fd5b60056000826000191660001916815260200190815260200160002060006101000a81549073ffffffffffffffffffffffffffffffffffffffff021916905580600019167f7cc135e0cebb02c3480ae5d74d377283180a2601f8f644edf7987b009316c63a60405160405180910390a28473ffffffffffffffffffffffffffffffffffffffff1686600019167f74ef8ef2b612d66b2aca4ad85d8f1c2833bbf8f202f114fa5be4667eb65d628c868686604051808460001916600019168152602001838152602001828152602001935050505060405180910390a3505050505050565b610f886109aa565b1515610f9357600080fd5b610f9c81611417565b50565b6000600260009054906101000a900473ffffffffffffffffffffffffffffffffffffffff16905090565b60006060829050600081511415610fe65760006001029150610fee565b602083015191505b50919050565b610ffc611c35565b611004611c35565b61101b85858584611513909392919063ffffffff16565b9150509392505050565b61103c8284608001516115cd90919063ffffffff16565b6110538184608001516115cd90919063ffffffff16565b505050565b600030600454604051602001808373ffffffffffffffffffffffffffffffffffffffff1673ffffffffffffffffffffffffffffffffffffffff166c01000000000000000000000000028152601401828152602001925050506040516020818303038152906040526040518082805190602001908083835b6020831015156110f457805182526020820191506020810190506020830392506110cf565b6001836020036101000a038019825116818451168082178552505050505050905001915050604051809103902090506004548360600181815250508360056000836000191660001916815260200190815260200160002060006101000a81548173ffffffffffffffffffffffffffffffffffffffff021916908373ffffffffffffffffffffffffffffffffffffffff16021790555080600019167fb5e6e01e79f91267dc17b4e6314d5d4d03593d2ceee0fbb452b750bd70ea5af960405160405180910390a2600260009054906101000a900473ffffffffffffffffffffffffffffffffffffffff1673ffffffffffffffffffffffffffffffffffffffff16634000aea08584611203876115f2565b6040518463ffffffff167c0100000000000000000000000000000000000000000000000000000000028152600401808473ffffffffffffffffffffffffffffffffffffffff1673ffffffffffffffffffffffffffffffffffffffff16815260200183815260200180602001828103825283818151815260200191508051906020019080838360005b838110156112a657808201518184015260208101905061128b565b50505050905090810190601f1680156112d35780820380516001836020036101000a031916815260200191505b50945050505050602060405180830381600087803b1580156112f457600080fd5b505af1158015611308573d6000803e3d6000fd5b505050506040513d602081101561131e57600080fd5b810190808051906020019092919050505015156113c9576040517f08c379a00000000000000000000000000000000000000000000000000000000081526004018080602001828103825260238152602001807f756e61626c6520746f207472616e73666572416e6443616c6c20746f206f726181526020017f636c65000000000000000000000000000000000000000000000000000000000081525060400191505060405180910390fd5b60016004600082825401925050819055508090509392505050565b6113fb8284608001516115cd90919063ffffffff16565b61141281846080015161181d90919063ffffffff16565b505050565b600073ffffffffffffffffffffffffffffffffffffffff168173ffffffffffffffffffffffffffffffffffffffff161415151561145357600080fd5b8073ffffffffffffffffffffffffffffffffffffffff16600660009054906101000a900473ffffffffffffffffffffffffffffffffffffffff1673ffffffffffffffffffffffffffffffffffffffff167f8be0079c531659141344cd1fd0a4f28419497f9722a3daafe3b4186f6b6457e060405160405180910390a380600660006101000a81548173ffffffffffffffffffffffffffffffffffffffff021916908373ffffffffffffffffffffffffffffffffffffffff16021790555050565b61151b611c35565b61152b856080015161010061186b565b50838560000190600019169081600019168152505082856020019073ffffffffffffffffffffffffffffffffffffffff16908173ffffffffffffffffffffffffffffffffffffffff16815250508185604001907bffffffffffffffffffffffffffffffffffffffffffffffffffffffff191690817bffffffffffffffffffffffffffffffffffffffffffffffffffffffff191681525050849050949350505050565b6115da82600383516118c5565b6115ed8183611a2390919063ffffffff16565b505050565b6060600360009054906101000a900473ffffffffffffffffffffffffffffffffffffffff1673ffffffffffffffffffffffffffffffffffffffff16634042994690507c01000000000000000000000000000000000000000000000000000000000260008084600001518560200151866040015187606001516001896080015160000151604051602401808973ffffffffffffffffffffffffffffffffffffffff1673ffffffffffffffffffffffffffffffffffffffff16815260200188815260200187600019166000191681526020018673ffffffffffffffffffffffffffffffffffffffff1673ffffffffffffffffffffffffffffffffffffffff168152602001857bffffffffffffffffffffffffffffffffffffffffffffffffffffffff19167bffffffffffffffffffffffffffffffffffffffffffffffffffffffff1916815260200184815260200183815260200180602001828103825283818151815260200191508051906020019080838360005b83811015611780578082015181840152602081019050611765565b50505050905090810190601f1680156117ad5780820380516001836020036101000a031916815260200191505b509950505050505050505050604051602081830303815290604052907bffffffffffffffffffffffffffffffffffffffffffffffffffffffff19166020820180517bffffffffffffffffffffffffffffffffffffffffffffffffffffffff83818316178352505050509050919050565b60008112151561183857611833826000836118c5565b611867565b611866826001837fffffffffffffffffffffffffffffffffffffffffffffffffffffffffffffffff036118c5565b5b5050565b611873611ca3565b600060208381151561188157fe5b0614151561189e5760208281151561189557fe5b06602003820191505b81836020018181525050604051808452600081528281016020016040525082905092915050565b6017811115156118f7576118f18160058460ff169060020a0260ff161784611a4590919063ffffffff16565b50611a1e565b60ff8111151561193e57611921601860058460ff169060020a021784611a4590919063ffffffff16565b5061193881600185611a659092919063ffffffff16565b50611a1d565b61ffff8111151561198657611969601960058460ff169060020a021784611a4590919063ffffffff16565b5061198081600285611a659092919063ffffffff16565b50611a1c565b63ffffffff811115156119d0576119b3601a60058460ff169060020a021784611a4590919063ffffffff16565b506119ca81600485611a659092919063ffffffff16565b50611a1b565b67ffffffffffffffff81111515611a1a57611a01601b60058460ff169060020a021784611a4590919063ffffffff16565b50611a1881600885611a659092919063ffffffff16565b505b5b5b5b5b505050565b611a2b611ca3565b611a3d83846000015151848551611a87565b905092915050565b611a4d611ca3565b611a5d8384600001515184611b44565b905092915050565b611a6d611ca3565b611a7e848560000151518585611b94565b90509392505050565b611a8f611ca3565b600080600085518511151515611aa457600080fd5b87602001518588011115611acf57611ace886002611ac88b602001518b8a01611bf5565b02611c11565b5b875180518860208301019450808988011115611aeb5788870182525b60208801935050505b602085101515611b195781518352602083019250602082019150602085039450611af4565b6001856020036101000a03905080198251168184511681811785525050879350505050949350505050565b611b4c611ca3565b836020015183101515611b6b57611b6a846002866020015102611c11565b5b8351805160208583010184815381861415611b87576001820183525b5050508390509392505050565b611b9c611ca3565b600085602001518584011115611bbc57611bbb86600287860102611c11565b5b6001836101000a0390508551838682010185831982511617815281518588011115611be75784870182525b505085915050949350505050565b600081831115611c0757829050611c0b565b8190505b92915050565b606082600001519050611c24838361186b565b50611c2f8382611a23565b50505050565b60c06040519081016040528060008019168152602001600073ffffffffffffffffffffffffffffffffffffffff16815260200160007bffffffffffffffffffffffffffffffffffffffffffffffffffffffff1916815260200160008152602001611c9d611cbd565b81525090565b604080519081016040528060608152602001600081525090565b6040805190810160405280606081526020016000815250905600a165627a7a723058202861306a16dbccdbdb432876a2bba6e885ff590f837db4400723317ee725e3a80029",
  "source": "// File: ../examples/testnet/TestnetConsumerBase.sol\n\npragma solidity 0.4.24;\n\nimport \"./ChainlinkClient.sol\";\nimport \"openzeppelin-solidity/contracts/ownership/Ownable.sol\";\nimport \"./RegistryInterface.sol\";\n\n\ncontract PoseidonNetwork is ChainlinkClient, Ownable {\n    uint256 constant private ORACLE_PAYMENT = 1 * LINK; // solium-disable-line zeppelin/no-arithmetic-operations\n    RegistryInterface private registry;\n    uint256 public currentPrice;\n\n    event RequestNodeStatusFulfilled(\n        bytes32 indexed requestId,\n        address indexed superNode,\n        bytes32 witness,\n        uint256 networkPower,\n        uint256 nodePower\n    );\n\n    event RequestEthereumPriceFulfilled(\n        bytes32 indexed requestId,\n        uint256 indexed price\n    );\n\n    constructor(address _tokenAddress) Ownable() public {\n        setChainlinkToken(_tokenAddress);\n    }\n\n    function setRegistryContract(address _registryContract) public onlyOwner {\n        registry = RegistryInterface(_registryContract);\n    }\n\n    function requestWithdrawQQQToken(address _oracle, string _jobId)\n        public\n    {\n        Chainlink.Request memory req = buildChainlinkRequest(stringToBytes32(_jobId), this, this.distributeQQQToken.selector);\n        string memory apiEndpoint = registry.selectSuperNode();\n        req.add(\"url\", apiEndpoint);\n        sendChainlinkRequestTo(_oracle, req, ORACLE_PAYMENT);\n    }\n\n    function distributeQQQToken(bytes32 _requestId, address _superNode, bytes32 _witness, uint256 _networkPower, uint256 _nodePower)\n        public\n        recordChainlinkFulfillment(_requestId)\n    {\n        emit RequestNodeStatusFulfilled(_requestId, _superNode, _witness, _networkPower, _nodePower);\n    }\n\n    function requestEthereumPrice(address _oracle, string _jobId)\n        public\n        onlyOwner\n    {\n        Chainlink.Request memory req = buildChainlinkRequest(stringToBytes32(_jobId), this, this.fulfillEthereumPrice.selector);\n        req.add(\"url\", \"https://min-api.cryptocompare.com/data/price?fsym=ETH&tsyms=USD\");\n        req.add(\"path\", \"USD\");\n        req.addInt(\"times\", 100);\n        sendChainlinkRequestTo(_oracle, req, ORACLE_PAYMENT);\n    }\n\n    function fulfillEthereumPrice(bytes32 _requestId, uint256 _price)\n        public\n        recordChainlinkFulfillment(_requestId)\n    {\n        emit RequestEthereumPriceFulfilled(_requestId, _price);\n        currentPrice = _price;\n    }\n\n    function getChainlinkToken() public view returns (address) {\n        return chainlinkTokenAddress();\n    }\n\n    function withdrawLink() public onlyOwner {\n        LinkTokenInterface link = LinkTokenInterface(chainlinkTokenAddress());\n        require(link.transfer(msg.sender, link.balanceOf(address(this))), \"Unable to transfer\");\n    }\n\n    function stringToBytes32(string memory source) private pure returns (bytes32 result) {\n        bytes memory tempEmptyStringTest = bytes(source);\n        if (tempEmptyStringTest.length == 0) {\n            return 0x0;\n        }\n\n        assembly {\n        result := mload(add(source, 32))\n        }\n    }\n\n}\n",
  "sourcePath": "/Users/antonasso/programming/posiedon/contracts/PoseidonNetwork.sol",
  "compiler": {
    "name": "solc",
    "version": "0.4.24+commit.e67f0147.Emscripten.clang"
  },
  "schemaVersion": "3.0.15",
  "updatedAt": "2019-09-10T02:58:49.976Z",
  "devdoc": {
    "methods": {
      "isOwner()": {
        "return": "true if `msg.sender` is the owner of the contract."
      },
      "owner()": {
        "return": "the address of the owner."
      },
      "renounceOwnership()": {
        "details": "Allows the current owner to relinquish control of the contract."
      },
      "transferOwnership(address)": {
        "details": "Allows the current owner to transfer control of the contract to a newOwner.",
        "params": {
          "newOwner": "The address to transfer ownership to."
        }
      }
    }
  },
  "userdoc": {
    "methods": {
      "renounceOwnership()": {
        "notice": "Renouncing to ownership will leave the contract without an owner. It will not be possible to call the functions with the `onlyOwner` modifier anymore."
      }
    }
  }
}