{
  "contractName": "PoseidonNetwork",
  "abi": [
    {
      "constant": false,
      "inputs": [],
      "name": "renounceOwnership",
      "outputs": [],
      "payable": false,
      "stateMutability": "nonpayable",
      "type": "function"
    },
    {
      "constant": true,
      "inputs": [],
      "name": "owner",
      "outputs": [
        {
          "name": "",
          "type": "address"
        }
      ],
      "payable": false,
      "stateMutability": "view",
      "type": "function"
    },
    {
      "constant": true,
      "inputs": [],
      "name": "isOwner",
      "outputs": [
        {
          "name": "",
          "type": "bool"
        }
      ],
      "payable": false,
      "stateMutability": "view",
      "type": "function"
    },
    {
      "constant": true,
      "inputs": [],
      "name": "currentPrice",
      "outputs": [
        {
          "name": "",
          "type": "uint256"
        }
      ],
      "payable": false,
      "stateMutability": "view",
      "type": "function"
    },
    {
      "constant": true,
      "inputs": [],
      "name": "lastMarket",
      "outputs": [
        {
          "name": "",
          "type": "bytes32"
        }
      ],
      "payable": false,
      "stateMutability": "view",
      "type": "function"
    },
    {
      "constant": false,
      "inputs": [
        {
          "name": "newOwner",
          "type": "address"
        }
      ],
      "name": "transferOwnership",
      "outputs": [],
      "payable": false,
      "stateMutability": "nonpayable",
      "type": "function"
    },
    {
      "inputs": [
        {
          "name": "_tokenAddress",
          "type": "address"
        }
      ],
      "payable": false,
      "stateMutability": "nonpayable",
      "type": "constructor"
    },
    {
      "anonymous": false,
      "inputs": [
        {
          "indexed": true,
          "name": "requestId",
          "type": "bytes32"
        },
        {
          "indexed": true,
          "name": "superNode",
          "type": "address"
        },
        {
          "indexed": false,
          "name": "witness",
          "type": "bytes32"
        },
        {
          "indexed": false,
          "name": "networkPower",
          "type": "uint256"
        },
        {
          "indexed": false,
          "name": "nodePower",
          "type": "uint256"
        }
      ],
      "name": "RequestNodeStatusFulfilled",
      "type": "event"
    },
    {
      "anonymous": false,
      "inputs": [
        {
          "indexed": true,
          "name": "requestId",
          "type": "bytes32"
        },
        {
          "indexed": true,
          "name": "price",
          "type": "uint256"
        }
      ],
      "name": "RequestEthereumPriceFulfilled",
      "type": "event"
    },
    {
      "anonymous": false,
      "inputs": [
        {
          "indexed": true,
          "name": "previousOwner",
          "type": "address"
        },
        {
          "indexed": true,
          "name": "newOwner",
          "type": "address"
        }
      ],
      "name": "OwnershipTransferred",
      "type": "event"
    },
    {
      "anonymous": false,
      "inputs": [
        {
          "indexed": true,
          "name": "id",
          "type": "bytes32"
        }
      ],
      "name": "ChainlinkRequested",
      "type": "event"
    },
    {
      "anonymous": false,
      "inputs": [
        {
          "indexed": true,
          "name": "id",
          "type": "bytes32"
        }
      ],
      "name": "ChainlinkFulfilled",
      "type": "event"
    },
    {
      "anonymous": false,
      "inputs": [
        {
          "indexed": true,
          "name": "id",
          "type": "bytes32"
        }
      ],
      "name": "ChainlinkCancelled",
      "type": "event"
    },
    {
      "constant": false,
      "inputs": [
        {
          "name": "_oracle",
          "type": "address"
        },
        {
          "name": "_jobId",
          "type": "string"
        }
      ],
      "name": "requestWithdrawQQQToken",
      "outputs": [],
      "payable": false,
      "stateMutability": "nonpayable",
      "type": "function"
    },
    {
      "constant": false,
      "inputs": [
        {
          "name": "_requestId",
          "type": "bytes32"
        },
        {
          "name": "_superNode",
          "type": "address"
        },
        {
          "name": "_witness",
          "type": "bytes32"
        },
        {
          "name": "_networkPower",
          "type": "uint256"
        },
        {
          "name": "_nodePower",
          "type": "uint256"
        }
      ],
      "name": "distributeQQQToken",
      "outputs": [],
      "payable": false,
      "stateMutability": "nonpayable",
      "type": "function"
    },
    {
      "constant": false,
      "inputs": [
        {
          "name": "_oracle",
          "type": "address"
        },
        {
          "name": "_jobId",
          "type": "string"
        }
      ],
      "name": "requestEthereumPrice",
      "outputs": [],
      "payable": false,
      "stateMutability": "nonpayable",
      "type": "function"
    },
    {
      "constant": false,
      "inputs": [
        {
          "name": "_requestId",
          "type": "bytes32"
        },
        {
          "name": "_price",
          "type": "uint256"
        }
      ],
      "name": "fulfillEthereumPrice",
      "outputs": [],
      "payable": false,
      "stateMutability": "nonpayable",
      "type": "function"
    },
    {
      "constant": true,
      "inputs": [],
      "name": "getChainlinkToken",
      "outputs": [
        {
          "name": "",
          "type": "address"
        }
      ],
      "payable": false,
      "stateMutability": "view",
      "type": "function"
    },
    {
      "constant": false,
      "inputs": [],
      "name": "withdrawLink",
      "outputs": [],
      "payable": false,
      "stateMutability": "nonpayable",
      "type": "function"
    }
  ],
  "bytecode": "0x6080604052600160045534801561001557600080fd5b50604051602080611d498339810180604052810190808051906020019092919050505033600660006101000a81548173ffffffffffffffffffffffffffffffffffffffff021916908373ffffffffffffffffffffffffffffffffffffffff160217905550600660009054906101000a900473ffffffffffffffffffffffffffffffffffffffff1673ffffffffffffffffffffffffffffffffffffffff16600073ffffffffffffffffffffffffffffffffffffffff167f8be0079c531659141344cd1fd0a4f28419497f9722a3daafe3b4186f6b6457e060405160405180910390a361010e81610114640100000000026401000000009004565b50610158565b80600260006101000a81548173ffffffffffffffffffffffffffffffffffffffff021916908373ffffffffffffffffffffffffffffffffffffffff16021790555050565b611be2806101676000396000f3006080604052600436106100ba576000357c0100000000000000000000000000000000000000000000000000000000900463ffffffff168063165d35e1146100bf578063548c239714610116578063715018a61461019f5780638da5cb5b146101b65780638dc654a21461020d5780638f32d59b1461022457806392cdaaf3146102535780639d1b464a1461028e578063ab643c10146102b9578063c0adc8d414610342578063e9edbf03146103b5578063f2fde38b146103e8575b600080fd5b3480156100cb57600080fd5b506100d461042b565b604051808273ffffffffffffffffffffffffffffffffffffffff1673ffffffffffffffffffffffffffffffffffffffff16815260200191505060405180910390f35b34801561012257600080fd5b5061019d600480360381019080803573ffffffffffffffffffffffffffffffffffffffff169060200190929190803590602001908201803590602001908080601f016020809104026020016040519081016040528093929190818152602001838380828437820191505050505050919291929050505061043a565b005b3480156101ab57600080fd5b506101b461053c565b005b3480156101c257600080fd5b506101cb610610565b604051808273ffffffffffffffffffffffffffffffffffffffff1673ffffffffffffffffffffffffffffffffffffffff16815260200191505060405180910390f35b34801561021957600080fd5b5061022261063a565b005b34801561023057600080fd5b50610239610883565b604051808215151515815260200191505060405180910390f35b34801561025f57600080fd5b5061028c6004803603810190808035600019169060200190929190803590602001909291905050506108db565b005b34801561029a57600080fd5b506102a3610a8d565b6040518082815260200191505060405180910390f35b3480156102c557600080fd5b50610340600480360381019080803573ffffffffffffffffffffffffffffffffffffffff169060200190929190803590602001908201803590602001908080601f0160208091040260200160405190810160405280939291908181526020018383808284378201915050505050509192919290505050610a93565b005b34801561034e57600080fd5b506103b36004803603810190808035600019169060200190929190803573ffffffffffffffffffffffffffffffffffffffff16906020019092919080356000191690602001909291908035906020019092919080359060200190929190505050610c72565b005b3480156103c157600080fd5b506103ca610e59565b60405180826000191660001916815260200191505060405180910390f35b3480156103f457600080fd5b50610429600480360381019080803573ffffffffffffffffffffffffffffffffffffffff169060200190929190505050610e5f565b005b6000610435610e7e565b905090565b610442611b14565b61047861044e83610ea8565b3063c0adc8d47c010000000000000000000000000000000000000000000000000000000002610ed3565b90506105206040805190810160405280600381526020017f75726c0000000000000000000000000000000000000000000000000000000000815250606060405190810160405280602681526020017f68747470733a2f2f6170692e706f736569646f6e6e6574776f726b2e636f6d2f81526020017f737461747573000000000000000000000000000000000000000000000000000081525083610f049092919063ffffffff16565b6105368382670de0b6b3a7640000600102610f37565b50505050565b610544610883565b151561054f57600080fd5b600073ffffffffffffffffffffffffffffffffffffffff16600660009054906101000a900473ffffffffffffffffffffffffffffffffffffffff1673ffffffffffffffffffffffffffffffffffffffff167f8be0079c531659141344cd1fd0a4f28419497f9722a3daafe3b4186f6b6457e060405160405180910390a36000600660006101000a81548173ffffffffffffffffffffffffffffffffffffffff021916908373ffffffffffffffffffffffffffffffffffffffff160217905550565b6000600660009054906101000a900473ffffffffffffffffffffffffffffffffffffffff16905090565b6000610644610883565b151561064f57600080fd5b610657610e7e565b90508073ffffffffffffffffffffffffffffffffffffffff1663a9059cbb338373ffffffffffffffffffffffffffffffffffffffff166370a08231306040518263ffffffff167c0100000000000000000000000000000000000000000000000000000000028152600401808273ffffffffffffffffffffffffffffffffffffffff1673ffffffffffffffffffffffffffffffffffffffff168152602001915050602060405180830381600087803b15801561071157600080fd5b505af1158015610725573d6000803e3d6000fd5b505050506040513d602081101561073b57600080fd5b81019080805190602001909291905050506040518363ffffffff167c0100000000000000000000000000000000000000000000000000000000028152600401808373ffffffffffffffffffffffffffffffffffffffff1673ffffffffffffffffffffffffffffffffffffffff16815260200182815260200192505050602060405180830381600087803b1580156107d157600080fd5b505af11580156107e5573d6000803e3d6000fd5b505050506040513d60208110156107fb57600080fd5b81019080805190602001909291905050501515610880576040517f08c379a00000000000000000000000000000000000000000000000000000000081526004018080602001828103825260128152602001807f556e61626c6520746f207472616e73666572000000000000000000000000000081525060200191505060405180910390fd5b50565b6000600660009054906101000a900473ffffffffffffffffffffffffffffffffffffffff1673ffffffffffffffffffffffffffffffffffffffff163373ffffffffffffffffffffffffffffffffffffffff1614905090565b8160056000826000191660001916815260200190815260200160002060009054906101000a900473ffffffffffffffffffffffffffffffffffffffff1673ffffffffffffffffffffffffffffffffffffffff163373ffffffffffffffffffffffffffffffffffffffff161415156109e0576040517f08c379a00000000000000000000000000000000000000000000000000000000081526004018080602001828103825260288152602001807f536f75726365206d75737420626520746865206f7261636c65206f662074686581526020017f207265717565737400000000000000000000000000000000000000000000000081525060400191505060405180910390fd5b60056000826000191660001916815260200190815260200160002060006101000a81549073ffffffffffffffffffffffffffffffffffffffff021916905580600019167f7cc135e0cebb02c3480ae5d74d377283180a2601f8f644edf7987b009316c63a60405160405180910390a28183600019167f794eb9e29f6750ede99e05248d997a9ab9fa23c4a7eaff8afa729080eb7c642860405160405180910390a381600781905550505050565b60075481565b610a9b611b14565b610aa3610883565b1515610aae57600080fd5b610ae4610aba83610ea8565b306392cdaaf37c010000000000000000000000000000000000000000000000000000000002610ed3565b9050610b8c6040805190810160405280600381526020017f75726c0000000000000000000000000000000000000000000000000000000000815250606060405190810160405280603f81526020017f68747470733a2f2f6d696e2d6170692e63727970746f636f6d706172652e636f81526020017f6d2f646174612f70726963653f6673796d3d455448267473796d733d5553440081525083610f049092919063ffffffff16565b610c0b6040805190810160405280600481526020017f70617468000000000000000000000000000000000000000000000000000000008152506040805190810160405280600381526020017f555344000000000000000000000000000000000000000000000000000000000081525083610f049092919063ffffffff16565b610c566040805190810160405280600581526020017f74696d65730000000000000000000000000000000000000000000000000000008152506064836112c39092919063ffffffff16565b610c6c8382670de0b6b3a7640000600102610f37565b50505050565b8460056000826000191660001916815260200190815260200160002060009054906101000a900473ffffffffffffffffffffffffffffffffffffffff1673ffffffffffffffffffffffffffffffffffffffff163373ffffffffffffffffffffffffffffffffffffffff16141515610d77576040517f08c379a00000000000000000000000000000000000000000000000000000000081526004018080602001828103825260288152602001807f536f75726365206d75737420626520746865206f7261636c65206f662074686581526020017f207265717565737400000000000000000000000000000000000000000000000081525060400191505060405180910390fd5b60056000826000191660001916815260200190815260200160002060006101000a81549073ffffffffffffffffffffffffffffffffffffffff021916905580600019167f7cc135e0cebb02c3480ae5d74d377283180a2601f8f644edf7987b009316c63a60405160405180910390a28473ffffffffffffffffffffffffffffffffffffffff1686600019167f74ef8ef2b612d66b2aca4ad85d8f1c2833bbf8f202f114fa5be4667eb65d628c868686604051808460001916600019168152602001838152602001828152602001935050505060405180910390a3505050505050565b60085481565b610e67610883565b1515610e7257600080fd5b610e7b816112f6565b50565b6000600260009054906101000a900473ffffffffffffffffffffffffffffffffffffffff16905090565b60006060829050600081511415610ec55760006001029150610ecd565b602083015191505b50919050565b610edb611b14565b610ee3611b14565b610efa858585846113f2909392919063ffffffff16565b9150509392505050565b610f1b8284608001516114ac90919063ffffffff16565b610f328184608001516114ac90919063ffffffff16565b505050565b600030600454604051602001808373ffffffffffffffffffffffffffffffffffffffff1673ffffffffffffffffffffffffffffffffffffffff166c01000000000000000000000000028152601401828152602001925050506040516020818303038152906040526040518082805190602001908083835b602083101515610fd35780518252602082019150602081019050602083039250610fae565b6001836020036101000a038019825116818451168082178552505050505050905001915050604051809103902090506004548360600181815250508360056000836000191660001916815260200190815260200160002060006101000a81548173ffffffffffffffffffffffffffffffffffffffff021916908373ffffffffffffffffffffffffffffffffffffffff16021790555080600019167fb5e6e01e79f91267dc17b4e6314d5d4d03593d2ceee0fbb452b750bd70ea5af960405160405180910390a2600260009054906101000a900473ffffffffffffffffffffffffffffffffffffffff1673ffffffffffffffffffffffffffffffffffffffff16634000aea085846110e2876114d1565b6040518463ffffffff167c0100000000000000000000000000000000000000000000000000000000028152600401808473ffffffffffffffffffffffffffffffffffffffff1673ffffffffffffffffffffffffffffffffffffffff16815260200183815260200180602001828103825283818151815260200191508051906020019080838360005b8381101561118557808201518184015260208101905061116a565b50505050905090810190601f1680156111b25780820380516001836020036101000a031916815260200191505b50945050505050602060405180830381600087803b1580156111d357600080fd5b505af11580156111e7573d6000803e3d6000fd5b505050506040513d60208110156111fd57600080fd5b810190808051906020019092919050505015156112a8576040517f08c379a00000000000000000000000000000000000000000000000000000000081526004018080602001828103825260238152602001807f756e61626c6520746f207472616e73666572416e6443616c6c20746f206f726181526020017f636c65000000000000000000000000000000000000000000000000000000000081525060400191505060405180910390fd5b60016004600082825401925050819055508090509392505050565b6112da8284608001516114ac90919063ffffffff16565b6112f18184608001516116fc90919063ffffffff16565b505050565b600073ffffffffffffffffffffffffffffffffffffffff168173ffffffffffffffffffffffffffffffffffffffff161415151561133257600080fd5b8073ffffffffffffffffffffffffffffffffffffffff16600660009054906101000a900473ffffffffffffffffffffffffffffffffffffffff1673ffffffffffffffffffffffffffffffffffffffff167f8be0079c531659141344cd1fd0a4f28419497f9722a3daafe3b4186f6b6457e060405160405180910390a380600660006101000a81548173ffffffffffffffffffffffffffffffffffffffff021916908373ffffffffffffffffffffffffffffffffffffffff16021790555050565b6113fa611b14565b61140a856080015161010061174a565b50838560000190600019169081600019168152505082856020019073ffffffffffffffffffffffffffffffffffffffff16908173ffffffffffffffffffffffffffffffffffffffff16815250508185604001907bffffffffffffffffffffffffffffffffffffffffffffffffffffffff191690817bffffffffffffffffffffffffffffffffffffffffffffffffffffffff191681525050849050949350505050565b6114b982600383516117a4565b6114cc818361190290919063ffffffff16565b505050565b6060600360009054906101000a900473ffffffffffffffffffffffffffffffffffffffff1673ffffffffffffffffffffffffffffffffffffffff16634042994690507c01000000000000000000000000000000000000000000000000000000000260008084600001518560200151866040015187606001516001896080015160000151604051602401808973ffffffffffffffffffffffffffffffffffffffff1673ffffffffffffffffffffffffffffffffffffffff16815260200188815260200187600019166000191681526020018673ffffffffffffffffffffffffffffffffffffffff1673ffffffffffffffffffffffffffffffffffffffff168152602001857bffffffffffffffffffffffffffffffffffffffffffffffffffffffff19167bffffffffffffffffffffffffffffffffffffffffffffffffffffffff1916815260200184815260200183815260200180602001828103825283818151815260200191508051906020019080838360005b8381101561165f578082015181840152602081019050611644565b50505050905090810190601f16801561168c5780820380516001836020036101000a031916815260200191505b509950505050505050505050604051602081830303815290604052907bffffffffffffffffffffffffffffffffffffffffffffffffffffffff19166020820180517bffffffffffffffffffffffffffffffffffffffffffffffffffffffff83818316178352505050509050919050565b60008112151561171757611712826000836117a4565b611746565b611745826001837fffffffffffffffffffffffffffffffffffffffffffffffffffffffffffffffff036117a4565b5b5050565b611752611b82565b600060208381151561176057fe5b0614151561177d5760208281151561177457fe5b06602003820191505b81836020018181525050604051808452600081528281016020016040525082905092915050565b6017811115156117d6576117d08160058460ff169060020a0260ff16178461192490919063ffffffff16565b506118fd565b60ff8111151561181d57611800601860058460ff169060020a02178461192490919063ffffffff16565b50611817816001856119449092919063ffffffff16565b506118fc565b61ffff8111151561186557611848601960058460ff169060020a02178461192490919063ffffffff16565b5061185f816002856119449092919063ffffffff16565b506118fb565b63ffffffff811115156118af57611892601a60058460ff169060020a02178461192490919063ffffffff16565b506118a9816004856119449092919063ffffffff16565b506118fa565b67ffffffffffffffff811115156118f9576118e0601b60058460ff169060020a02178461192490919063ffffffff16565b506118f7816008856119449092919063ffffffff16565b505b5b5b5b5b505050565b61190a611b82565b61191c83846000015151848551611966565b905092915050565b61192c611b82565b61193c8384600001515184611a23565b905092915050565b61194c611b82565b61195d848560000151518585611a73565b90509392505050565b61196e611b82565b60008060008551851115151561198357600080fd5b876020015185880111156119ae576119ad8860026119a78b602001518b8a01611ad4565b02611af0565b5b8751805188602083010194508089880111156119ca5788870182525b60208801935050505b6020851015156119f857815183526020830192506020820191506020850394506119d3565b6001856020036101000a03905080198251168184511681811785525050879350505050949350505050565b611a2b611b82565b836020015183101515611a4a57611a49846002866020015102611af0565b5b8351805160208583010184815381861415611a66576001820183525b5050508390509392505050565b611a7b611b82565b600085602001518584011115611a9b57611a9a86600287860102611af0565b5b6001836101000a0390508551838682010185831982511617815281518588011115611ac65784870182525b505085915050949350505050565b600081831115611ae657829050611aea565b8190505b92915050565b606082600001519050611b03838361174a565b50611b0e8382611902565b50505050565b60c06040519081016040528060008019168152602001600073ffffffffffffffffffffffffffffffffffffffff16815260200160007bffffffffffffffffffffffffffffffffffffffffffffffffffffffff1916815260200160008152602001611b7c611b9c565b81525090565b604080519081016040528060608152602001600081525090565b6040805190810160405280606081526020016000815250905600a165627a7a723058208a8ddac9e131ae72ed8da8cf35d57a987fd10ad2438722b1d679dcf264177f560029",
  "source": "// File: ../examples/testnet/TestnetConsumerBase.sol\n\npragma solidity 0.4.24;\n\nimport \"./ChainlinkClient.sol\";\nimport \"openzeppelin-solidity/contracts/ownership/Ownable.sol\";\n\n\ncontract PoseidonNetwork is ChainlinkClient, Ownable {\n    uint256 constant private ORACLE_PAYMENT = 1 * LINK; // solium-disable-line zeppelin/no-arithmetic-operations\n\n    uint256 public currentPrice;\n    bytes32 public lastMarket;\n\n    event RequestNodeStatusFulfilled(\n        bytes32 indexed requestId,\n        address indexed superNode,\n        bytes32 witness,\n        uint256 networkPower,\n        uint256 nodePower\n    );\n\n    event RequestEthereumPriceFulfilled(\n        bytes32 indexed requestId,\n        uint256 indexed price\n    );\n\n    constructor(address _tokenAddress) Ownable() public {\n        setChainlinkToken(_tokenAddress);\n    }\n\n    function requestWithdrawQQQToken(address _oracle, string _jobId)\n        public\n    {\n        Chainlink.Request memory req = buildChainlinkRequest(stringToBytes32(_jobId), this, this.distributeQQQToken.selector);\n        req.add(\"url\", \"https://api.poseidonnetwork.com/status\");\n        sendChainlinkRequestTo(_oracle, req, ORACLE_PAYMENT);\n    }\n\n    function distributeQQQToken(bytes32 _requestId, address _superNode, bytes32 _witness, uint256 _networkPower, uint256 _nodePower)\n        public\n        recordChainlinkFulfillment(_requestId)\n    {\n        emit RequestNodeStatusFulfilled(_requestId, _superNode, _witness, _networkPower, _nodePower);\n    }\n\n    function requestEthereumPrice(address _oracle, string _jobId)\n        public\n        onlyOwner\n    {\n        Chainlink.Request memory req = buildChainlinkRequest(stringToBytes32(_jobId), this, this.fulfillEthereumPrice.selector);\n        req.add(\"url\", \"https://min-api.cryptocompare.com/data/price?fsym=ETH&tsyms=USD\");\n        req.add(\"path\", \"USD\");\n        req.addInt(\"times\", 100);\n        sendChainlinkRequestTo(_oracle, req, ORACLE_PAYMENT);\n    }\n\n    function fulfillEthereumPrice(bytes32 _requestId, uint256 _price)\n        public\n        recordChainlinkFulfillment(_requestId)\n    {\n        emit RequestEthereumPriceFulfilled(_requestId, _price);\n        currentPrice = _price;\n    }\n\n    function getChainlinkToken() public view returns (address) {\n        return chainlinkTokenAddress();\n    }\n\n    function withdrawLink() public onlyOwner {\n        LinkTokenInterface link = LinkTokenInterface(chainlinkTokenAddress());\n        require(link.transfer(msg.sender, link.balanceOf(address(this))), \"Unable to transfer\");\n    }\n\n    function stringToBytes32(string memory source) private pure returns (bytes32 result) {\n        bytes memory tempEmptyStringTest = bytes(source);\n        if (tempEmptyStringTest.length == 0) {\n            return 0x0;\n        }\n\n        assembly {\n        result := mload(add(source, 32))\n        }\n    }\n\n}\n",
  "sourcePath": "/Users/antonasso/programming/posiedon/contracts/TestnetConsumerBase.sol",
  "compiler": {
    "name": "solc",
    "version": "0.4.24+commit.e67f0147.Emscripten.clang"
  },
  "schemaVersion": "3.0.15",
  "updatedAt": "2019-09-08T12:43:21.748Z",
  "devdoc": {
    "methods": {
      "isOwner()": {
        "return": "true if `msg.sender` is the owner of the contract."
      },
      "owner()": {
        "return": "the address of the owner."
      },
      "renounceOwnership()": {
        "details": "Allows the current owner to relinquish control of the contract."
      },
      "transferOwnership(address)": {
        "details": "Allows the current owner to transfer control of the contract to a newOwner.",
        "params": {
          "newOwner": "The address to transfer ownership to."
        }
      }
    }
  },
  "userdoc": {
    "methods": {
      "renounceOwnership()": {
        "notice": "Renouncing to ownership will leave the contract without an owner. It will not be possible to call the functions with the `onlyOwner` modifier anymore."
      }
    }
  }
}