{
  "contractName": "PoseidonNetwork",
  "abi": [
    {
      "constant": false,
      "inputs": [],
      "name": "renounceOwnership",
      "outputs": [],
      "payable": false,
      "stateMutability": "nonpayable",
      "type": "function"
    },
    {
      "constant": true,
      "inputs": [],
      "name": "owner",
      "outputs": [
        {
          "name": "",
          "type": "address"
        }
      ],
      "payable": false,
      "stateMutability": "view",
      "type": "function"
    },
    {
      "constant": true,
      "inputs": [],
      "name": "isOwner",
      "outputs": [
        {
          "name": "",
          "type": "bool"
        }
      ],
      "payable": false,
      "stateMutability": "view",
      "type": "function"
    },
    {
      "constant": false,
      "inputs": [
        {
          "name": "newOwner",
          "type": "address"
        }
      ],
      "name": "transferOwnership",
      "outputs": [],
      "payable": false,
      "stateMutability": "nonpayable",
      "type": "function"
    },
    {
      "inputs": [
        {
          "name": "_linkTokenAddress",
          "type": "address"
        },
        {
          "name": "_poseidonTokenAddess",
          "type": "address"
        }
      ],
      "payable": false,
      "stateMutability": "nonpayable",
      "type": "constructor"
    },
    {
      "anonymous": false,
      "inputs": [
        {
          "indexed": true,
          "name": "requestId",
          "type": "bytes32"
        },
        {
          "indexed": true,
          "name": "superNode",
          "type": "address"
        },
        {
          "indexed": false,
          "name": "witness",
          "type": "bytes32"
        },
        {
          "indexed": false,
          "name": "amount",
          "type": "uint256"
        }
      ],
      "name": "RequestNetworkStatusFulfilled",
      "type": "event"
    },
    {
      "anonymous": false,
      "inputs": [
        {
          "indexed": true,
          "name": "previousOwner",
          "type": "address"
        },
        {
          "indexed": true,
          "name": "newOwner",
          "type": "address"
        }
      ],
      "name": "OwnershipTransferred",
      "type": "event"
    },
    {
      "anonymous": false,
      "inputs": [
        {
          "indexed": true,
          "name": "id",
          "type": "bytes32"
        }
      ],
      "name": "ChainlinkRequested",
      "type": "event"
    },
    {
      "anonymous": false,
      "inputs": [
        {
          "indexed": true,
          "name": "id",
          "type": "bytes32"
        }
      ],
      "name": "ChainlinkFulfilled",
      "type": "event"
    },
    {
      "anonymous": false,
      "inputs": [
        {
          "indexed": true,
          "name": "id",
          "type": "bytes32"
        }
      ],
      "name": "ChainlinkCancelled",
      "type": "event"
    },
    {
      "constant": false,
      "inputs": [
        {
          "name": "_registryContract",
          "type": "address"
        }
      ],
      "name": "setRegistryContract",
      "outputs": [],
      "payable": false,
      "stateMutability": "nonpayable",
      "type": "function"
    },
    {
      "constant": false,
      "inputs": [
        {
          "name": "_oracle",
          "type": "address"
        },
        {
          "name": "_jobId",
          "type": "string"
        }
      ],
      "name": "requestWithdrawToken",
      "outputs": [],
      "payable": false,
      "stateMutability": "nonpayable",
      "type": "function"
    },
    {
      "constant": false,
      "inputs": [
        {
          "name": "_requestId",
          "type": "bytes32"
        },
        {
          "name": "_superNode",
          "type": "address"
        },
        {
          "name": "_witness",
          "type": "bytes32"
        },
        {
          "name": "_amount",
          "type": "uint256"
        }
      ],
      "name": "distributeToken",
      "outputs": [],
      "payable": false,
      "stateMutability": "nonpayable",
      "type": "function"
    },
    {
      "constant": true,
      "inputs": [],
      "name": "getChainlinkToken",
      "outputs": [
        {
          "name": "",
          "type": "address"
        }
      ],
      "payable": false,
      "stateMutability": "view",
      "type": "function"
    },
    {
      "constant": false,
      "inputs": [],
      "name": "withdrawLink",
      "outputs": [],
      "payable": false,
      "stateMutability": "nonpayable",
      "type": "function"
    }
  ],
  "bytecode": "0x6080604052600160045534801561001557600080fd5b50604051604080611a97833981018060405281019080805190602001909291908051906020019092919050505033600660006101000a81548173ffffffffffffffffffffffffffffffffffffffff021916908373ffffffffffffffffffffffffffffffffffffffff160217905550600660009054906101000a900473ffffffffffffffffffffffffffffffffffffffff1673ffffffffffffffffffffffffffffffffffffffff16600073ffffffffffffffffffffffffffffffffffffffff167f8be0079c531659141344cd1fd0a4f28419497f9722a3daafe3b4186f6b6457e060405160405180910390a361011882610137640100000000026401000000009004565b6101308161017b640100000000026401000000009004565b50506101bf565b80600260006101000a81548173ffffffffffffffffffffffffffffffffffffffff021916908373ffffffffffffffffffffffffffffffffffffffff16021790555050565b80600860006101000a81548173ffffffffffffffffffffffffffffffffffffffff021916908373ffffffffffffffffffffffffffffffffffffffff16021790555050565b6118c9806101ce6000396000f300608060405260043610610099576000357c0100000000000000000000000000000000000000000000000000000000900463ffffffff168063028ebc441461009e578063165d35e1146100e157806338f6e68614610138578063715018a6146101c15780638da5cb5b146101d85780638dc654a21461022f5780638f32d59b14610246578063beaefe0114610275578063f2fde38b146102de575b600080fd5b3480156100aa57600080fd5b506100df600480360381019080803573ffffffffffffffffffffffffffffffffffffffff169060200190929190505050610321565b005b3480156100ed57600080fd5b506100f6610378565b604051808273ffffffffffffffffffffffffffffffffffffffff1673ffffffffffffffffffffffffffffffffffffffff16815260200191505060405180910390f35b34801561014457600080fd5b506101bf600480360381019080803573ffffffffffffffffffffffffffffffffffffffff169060200190929190803590602001908201803590602001908080601f0160208091040260200160405190810160405280939291908181526020018383808284378201915050505050509192919290505050610387565b005b3480156101cd57600080fd5b506101d6610549565b005b3480156101e457600080fd5b506101ed61061d565b604051808273ffffffffffffffffffffffffffffffffffffffff1673ffffffffffffffffffffffffffffffffffffffff16815260200191505060405180910390f35b34801561023b57600080fd5b50610244610647565b005b34801561025257600080fd5b5061025b610890565b604051808215151515815260200191505060405180910390f35b34801561028157600080fd5b506102dc6004803603810190808035600019169060200190929190803573ffffffffffffffffffffffffffffffffffffffff1690602001909291908035600019169060200190929190803590602001909291905050506108e8565b005b3480156102ea57600080fd5b5061031f600480360381019080803573ffffffffffffffffffffffffffffffffffffffff169060200190929190505050610bc7565b005b610329610890565b151561033457600080fd5b80600760006101000a81548173ffffffffffffffffffffffffffffffffffffffff021916908373ffffffffffffffffffffffffffffffffffffffff16021790555050565b6000610382610be6565b905090565b61038f6117fb565b60606103c761039d84610c10565b3063beaefe017c010000000000000000000000000000000000000000000000000000000002610c3b565b9150600760009054906101000a900473ffffffffffffffffffffffffffffffffffffffff1673ffffffffffffffffffffffffffffffffffffffff1663a43b6d7a6040518163ffffffff167c0100000000000000000000000000000000000000000000000000000000028152600401600060405180830381600087803b15801561044f57600080fd5b505af1158015610463573d6000803e3d6000fd5b505050506040513d6000823e3d601f19601f82011682018060405250602081101561048d57600080fd5b8101908080516401000000008111156104a557600080fd5b828101905060208101848111156104bb57600080fd5b81518560018202830111640100000000821117156104d857600080fd5b5050929190505050905061052c6040805190810160405280600381526020017f75726c00000000000000000000000000000000000000000000000000000000008152508284610c6c9092919063ffffffff16565b6105428483670de0b6b3a7640000600102610c9f565b5050505050565b610551610890565b151561055c57600080fd5b600073ffffffffffffffffffffffffffffffffffffffff16600660009054906101000a900473ffffffffffffffffffffffffffffffffffffffff1673ffffffffffffffffffffffffffffffffffffffff167f8be0079c531659141344cd1fd0a4f28419497f9722a3daafe3b4186f6b6457e060405160405180910390a36000600660006101000a81548173ffffffffffffffffffffffffffffffffffffffff021916908373ffffffffffffffffffffffffffffffffffffffff160217905550565b6000600660009054906101000a900473ffffffffffffffffffffffffffffffffffffffff16905090565b6000610651610890565b151561065c57600080fd5b610664610be6565b90508073ffffffffffffffffffffffffffffffffffffffff1663a9059cbb338373ffffffffffffffffffffffffffffffffffffffff166370a08231306040518263ffffffff167c0100000000000000000000000000000000000000000000000000000000028152600401808273ffffffffffffffffffffffffffffffffffffffff1673ffffffffffffffffffffffffffffffffffffffff168152602001915050602060405180830381600087803b15801561071e57600080fd5b505af1158015610732573d6000803e3d6000fd5b505050506040513d602081101561074857600080fd5b81019080805190602001909291905050506040518363ffffffff167c0100000000000000000000000000000000000000000000000000000000028152600401808373ffffffffffffffffffffffffffffffffffffffff1673ffffffffffffffffffffffffffffffffffffffff16815260200182815260200192505050602060405180830381600087803b1580156107de57600080fd5b505af11580156107f2573d6000803e3d6000fd5b505050506040513d602081101561080857600080fd5b8101908080519060200190929190505050151561088d576040517f08c379a00000000000000000000000000000000000000000000000000000000081526004018080602001828103825260128152602001807f556e61626c6520746f207472616e73666572000000000000000000000000000081525060200191505060405180910390fd5b50565b6000600660009054906101000a900473ffffffffffffffffffffffffffffffffffffffff1673ffffffffffffffffffffffffffffffffffffffff163373ffffffffffffffffffffffffffffffffffffffff1614905090565b8360056000826000191660001916815260200190815260200160002060009054906101000a900473ffffffffffffffffffffffffffffffffffffffff1673ffffffffffffffffffffffffffffffffffffffff163373ffffffffffffffffffffffffffffffffffffffff161415156109ed576040517f08c379a00000000000000000000000000000000000000000000000000000000081526004018080602001828103825260288152602001807f536f75726365206d75737420626520746865206f7261636c65206f662074686581526020017f207265717565737400000000000000000000000000000000000000000000000081525060400191505060405180910390fd5b60056000826000191660001916815260200190815260200160002060006101000a81549073ffffffffffffffffffffffffffffffffffffffff021916905580600019167f7cc135e0cebb02c3480ae5d74d377283180a2601f8f644edf7987b009316c63a60405160405180910390a2600860009054906101000a900473ffffffffffffffffffffffffffffffffffffffff1673ffffffffffffffffffffffffffffffffffffffff1663a9059cbb85846040518363ffffffff167c0100000000000000000000000000000000000000000000000000000000028152600401808373ffffffffffffffffffffffffffffffffffffffff1673ffffffffffffffffffffffffffffffffffffffff16815260200182815260200192505050602060405180830381600087803b158015610b2157600080fd5b505af1158015610b35573d6000803e3d6000fd5b505050506040513d6020811015610b4b57600080fd5b8101908080519060200190929190505050508373ffffffffffffffffffffffffffffffffffffffff1685600019167f61f18611ac16a70dfd518dc82ab733c1a1239c75f452a0eb1fa5abf6cc056da785856040518083600019166000191681526020018281526020019250505060405180910390a35050505050565b610bcf610890565b1515610bda57600080fd5b610be38161102b565b50565b6000600260009054906101000a900473ffffffffffffffffffffffffffffffffffffffff16905090565b60006060829050600081511415610c2d5760006001029150610c35565b602083015191505b50919050565b610c436117fb565b610c4b6117fb565b610c6285858584611127909392919063ffffffff16565b9150509392505050565b610c838284608001516111e190919063ffffffff16565b610c9a8184608001516111e190919063ffffffff16565b505050565b600030600454604051602001808373ffffffffffffffffffffffffffffffffffffffff1673ffffffffffffffffffffffffffffffffffffffff166c01000000000000000000000000028152601401828152602001925050506040516020818303038152906040526040518082805190602001908083835b602083101515610d3b5780518252602082019150602081019050602083039250610d16565b6001836020036101000a038019825116818451168082178552505050505050905001915050604051809103902090506004548360600181815250508360056000836000191660001916815260200190815260200160002060006101000a81548173ffffffffffffffffffffffffffffffffffffffff021916908373ffffffffffffffffffffffffffffffffffffffff16021790555080600019167fb5e6e01e79f91267dc17b4e6314d5d4d03593d2ceee0fbb452b750bd70ea5af960405160405180910390a2600260009054906101000a900473ffffffffffffffffffffffffffffffffffffffff1673ffffffffffffffffffffffffffffffffffffffff16634000aea08584610e4a87611206565b6040518463ffffffff167c0100000000000000000000000000000000000000000000000000000000028152600401808473ffffffffffffffffffffffffffffffffffffffff1673ffffffffffffffffffffffffffffffffffffffff16815260200183815260200180602001828103825283818151815260200191508051906020019080838360005b83811015610eed578082015181840152602081019050610ed2565b50505050905090810190601f168015610f1a5780820380516001836020036101000a031916815260200191505b50945050505050602060405180830381600087803b158015610f3b57600080fd5b505af1158015610f4f573d6000803e3d6000fd5b505050506040513d6020811015610f6557600080fd5b81019080805190602001909291905050501515611010576040517f08c379a00000000000000000000000000000000000000000000000000000000081526004018080602001828103825260238152602001807f756e61626c6520746f207472616e73666572416e6443616c6c20746f206f726181526020017f636c65000000000000000000000000000000000000000000000000000000000081525060400191505060405180910390fd5b60016004600082825401925050819055508090509392505050565b600073ffffffffffffffffffffffffffffffffffffffff168173ffffffffffffffffffffffffffffffffffffffff161415151561106757600080fd5b8073ffffffffffffffffffffffffffffffffffffffff16600660009054906101000a900473ffffffffffffffffffffffffffffffffffffffff1673ffffffffffffffffffffffffffffffffffffffff167f8be0079c531659141344cd1fd0a4f28419497f9722a3daafe3b4186f6b6457e060405160405180910390a380600660006101000a81548173ffffffffffffffffffffffffffffffffffffffff021916908373ffffffffffffffffffffffffffffffffffffffff16021790555050565b61112f6117fb565b61113f8560800151610100611431565b50838560000190600019169081600019168152505082856020019073ffffffffffffffffffffffffffffffffffffffff16908173ffffffffffffffffffffffffffffffffffffffff16815250508185604001907bffffffffffffffffffffffffffffffffffffffffffffffffffffffff191690817bffffffffffffffffffffffffffffffffffffffffffffffffffffffff191681525050849050949350505050565b6111ee826003835161148b565b61120181836115e990919063ffffffff16565b505050565b6060600360009054906101000a900473ffffffffffffffffffffffffffffffffffffffff1673ffffffffffffffffffffffffffffffffffffffff16634042994690507c01000000000000000000000000000000000000000000000000000000000260008084600001518560200151866040015187606001516001896080015160000151604051602401808973ffffffffffffffffffffffffffffffffffffffff1673ffffffffffffffffffffffffffffffffffffffff16815260200188815260200187600019166000191681526020018673ffffffffffffffffffffffffffffffffffffffff1673ffffffffffffffffffffffffffffffffffffffff168152602001857bffffffffffffffffffffffffffffffffffffffffffffffffffffffff19167bffffffffffffffffffffffffffffffffffffffffffffffffffffffff1916815260200184815260200183815260200180602001828103825283818151815260200191508051906020019080838360005b83811015611394578082015181840152602081019050611379565b50505050905090810190601f1680156113c15780820380516001836020036101000a031916815260200191505b509950505050505050505050604051602081830303815290604052907bffffffffffffffffffffffffffffffffffffffffffffffffffffffff19166020820180517bffffffffffffffffffffffffffffffffffffffffffffffffffffffff83818316178352505050509050919050565b611439611869565b600060208381151561144757fe5b061415156114645760208281151561145b57fe5b06602003820191505b81836020018181525050604051808452600081528281016020016040525082905092915050565b6017811115156114bd576114b78160058460ff169060020a0260ff16178461160b90919063ffffffff16565b506115e4565b60ff81111515611504576114e7601860058460ff169060020a02178461160b90919063ffffffff16565b506114fe8160018561162b9092919063ffffffff16565b506115e3565b61ffff8111151561154c5761152f601960058460ff169060020a02178461160b90919063ffffffff16565b506115468160028561162b9092919063ffffffff16565b506115e2565b63ffffffff8111151561159657611579601a60058460ff169060020a02178461160b90919063ffffffff16565b506115908160048561162b9092919063ffffffff16565b506115e1565b67ffffffffffffffff811115156115e0576115c7601b60058460ff169060020a02178461160b90919063ffffffff16565b506115de8160088561162b9092919063ffffffff16565b505b5b5b5b5b505050565b6115f1611869565b6116038384600001515184855161164d565b905092915050565b611613611869565b611623838460000151518461170a565b905092915050565b611633611869565b61164484856000015151858561175a565b90509392505050565b611655611869565b60008060008551851115151561166a57600080fd5b876020015185880111156116955761169488600261168e8b602001518b8a016117bb565b026117d7565b5b8751805188602083010194508089880111156116b15788870182525b60208801935050505b6020851015156116df57815183526020830192506020820191506020850394506116ba565b6001856020036101000a03905080198251168184511681811785525050879350505050949350505050565b611712611869565b836020015183101515611731576117308460028660200151026117d7565b5b835180516020858301018481538186141561174d576001820183525b5050508390509392505050565b611762611869565b60008560200151858401111561178257611781866002878601026117d7565b5b6001836101000a03905085518386820101858319825116178152815185880111156117ad5784870182525b505085915050949350505050565b6000818311156117cd578290506117d1565b8190505b92915050565b6060826000015190506117ea8383611431565b506117f583826115e9565b50505050565b60c06040519081016040528060008019168152602001600073ffffffffffffffffffffffffffffffffffffffff16815260200160007bffffffffffffffffffffffffffffffffffffffffffffffffffffffff1916815260200160008152602001611863611883565b81525090565b604080519081016040528060608152602001600081525090565b6040805190810160405280606081526020016000815250905600a165627a7a7230582044b6b5741957f8f8b3ee6539d03c868236897d247c9d7cfcce577bbfa55fd5d90029",
  "source": "// File: ../examples/testnet/TestnetConsumerBase.sol\n\npragma solidity 0.4.24;\n\nimport \"./ChainlinkClient.sol\";\nimport \"openzeppelin-solidity/contracts/ownership/Ownable.sol\";\nimport \"./RegistryInterface.sol\";\nimport \"./PoseidonTokenInterface.sol\";\n\n\ncontract PoseidonNetwork is ChainlinkClient, Ownable {\n    uint256 constant private ORACLE_PAYMENT = 1 * LINK; // solium-disable-line zeppelin/no-arithmetic-operations\n    RegistryInterface private registry;\n    PoseidonTokenInterface private poseidonToken;\n\n    event RequestNetworkStatusFulfilled(\n        bytes32 indexed requestId,\n        address indexed superNode,\n        bytes32 witness,\n        uint256 amount\n    );\n\n    constructor(address _linkTokenAddress, address _poseidonTokenAddess) Ownable() public {\n        setChainlinkToken(_linkTokenAddress);\n        setPoseidonToken(_poseidonTokenAddess);\n    }\n\n    function setRegistryContract(address _registryContract) public onlyOwner {\n        registry = RegistryInterface(_registryContract);\n    }\n\n    function requestWithdrawToken(address _oracle, string _jobId)\n        public\n    {\n        Chainlink.Request memory req = buildChainlinkRequest(stringToBytes32(_jobId), this, this.distributeToken.selector);\n        string memory apiEndpoint = registry.selectSuperNode();\n        req.add(\"url\", apiEndpoint);\n        sendChainlinkRequestTo(_oracle, req, ORACLE_PAYMENT);\n    }\n\n    function distributeToken(bytes32 _requestId, address _superNode, bytes32 _witness, uint256 _amount)\n        public\n        recordChainlinkFulfillment(_requestId)\n    {\n        poseidonToken.transfer(_superNode, _amount);\n        emit RequestNetworkStatusFulfilled(_requestId, _superNode, _witness, _amount);\n\n    }\n\n    function getChainlinkToken() public view returns (address) {\n        return chainlinkTokenAddress();\n    }\n\n    function withdrawLink() public onlyOwner {\n        LinkTokenInterface link = LinkTokenInterface(chainlinkTokenAddress());\n        require(link.transfer(msg.sender, link.balanceOf(address(this))), \"Unable to transfer\");\n    }\n\n    /**\n    * @notice Sets the Poseidon token address\n    * @param _link The address of the LINK token contract\n    */\n    function setPoseidonToken(address _link) internal {\n        poseidonToken = PoseidonTokenInterface(_link);\n    }\n\n    function stringToBytes32(string memory source) private pure returns (bytes32 result) {\n        bytes memory tempEmptyStringTest = bytes(source);\n        if (tempEmptyStringTest.length == 0) {\n            return 0x0;\n        }\n\n        assembly {\n        result := mload(add(source, 32))\n        }\n    }\n\n}\n",
  "sourcePath": "/Users/antonasso/programming/posiedon/contracts/PoseidonNetwork.sol",
  "compiler": {
    "name": "solc",
    "version": "0.4.24+commit.e67f0147.Emscripten.clang"
  },
  "schemaVersion": "3.0.15",
  "updatedAt": "2019-09-12T08:06:56.473Z",
  "devdoc": {
    "methods": {
      "isOwner()": {
        "return": "true if `msg.sender` is the owner of the contract."
      },
      "owner()": {
        "return": "the address of the owner."
      },
      "renounceOwnership()": {
        "details": "Allows the current owner to relinquish control of the contract."
      },
      "transferOwnership(address)": {
        "details": "Allows the current owner to transfer control of the contract to a newOwner.",
        "params": {
          "newOwner": "The address to transfer ownership to."
        }
      }
    }
  },
  "userdoc": {
    "methods": {
      "renounceOwnership()": {
        "notice": "Renouncing to ownership will leave the contract without an owner. It will not be possible to call the functions with the `onlyOwner` modifier anymore."
      }
    }
  }
}